{
  "_format": "hh-sol-artifact-1",
  "contractName": "Crowdfund",
  "sourceName": "contracts/Crowdfund.sol",
  "abi": [
    {
      "inputs": [],
      "stateMutability": "nonpayable",
      "type": "constructor"
    },
    {
      "anonymous": false,
      "inputs": [
        {
          "indexed": false,
          "internalType": "uint256",
          "name": "campaignId",
          "type": "uint256"
        },
        {
          "indexed": true,
          "internalType": "address",
          "name": "creator",
          "type": "address"
        }
      ],
      "name": "CampaignCreated",
      "type": "event"
    },
    {
      "anonymous": false,
      "inputs": [
        {
          "indexed": true,
          "internalType": "address",
          "name": "receiver",
          "type": "address"
        },
        {
          "indexed": false,
          "internalType": "uint256",
          "name": "amount",
          "type": "uint256"
        }
      ],
      "name": "ContractFundsTransferred",
      "type": "event"
    },
    {
      "anonymous": false,
      "inputs": [
        {
          "indexed": false,
          "internalType": "uint256",
          "name": "amount",
          "type": "uint256"
        }
      ],
      "name": "ContractFundsWithdrawn",
      "type": "event"
    },
    {
      "anonymous": false,
      "inputs": [
        {
          "indexed": true,
          "internalType": "uint256",
          "name": "campaignId",
          "type": "uint256"
        },
        {
          "indexed": true,
          "internalType": "address",
          "name": "backer",
          "type": "address"
        },
        {
          "indexed": false,
          "internalType": "uint256",
          "name": "amount",
          "type": "uint256"
        }
      ],
      "name": "Funded",
      "type": "event"
    },
    {
      "anonymous": false,
      "inputs": [
        {
          "indexed": true,
          "internalType": "uint256",
          "name": "campaignId",
          "type": "uint256"
        },
        {
          "indexed": true,
          "internalType": "address",
          "name": "backer",
          "type": "address"
        },
        {
          "indexed": false,
          "internalType": "uint256",
          "name": "amount",
          "type": "uint256"
        }
      ],
      "name": "Refunded",
      "type": "event"
    },
    {
      "anonymous": false,
      "inputs": [
        {
          "indexed": false,
          "internalType": "uint256",
          "name": "campaignId",
          "type": "uint256"
        },
        {
          "indexed": false,
          "internalType": "bool",
          "name": "byCreator",
          "type": "bool"
        }
      ],
      "name": "Stopped",
      "type": "event"
    },
    {
      "anonymous": false,
      "inputs": [
        {
          "indexed": false,
          "internalType": "uint256",
          "name": "campaignId",
          "type": "uint256"
        },
        {
          "indexed": true,
          "internalType": "address",
          "name": "creator",
          "type": "address"
        },
        {
          "indexed": false,
          "internalType": "uint256",
          "name": "amount",
          "type": "uint256"
        }
      ],
      "name": "Withdrawn",
      "type": "event"
    },
    {
      "inputs": [],
      "name": "MAX_CAMPAIGNS",
      "outputs": [
        {
          "internalType": "uint256",
          "name": "",
          "type": "uint256"
        }
      ],
      "stateMutability": "view",
      "type": "function"
    },
    {
      "inputs": [],
      "name": "MIN_DURATION",
      "outputs": [
        {
          "internalType": "uint256",
          "name": "",
          "type": "uint256"
        }
      ],
      "stateMutability": "view",
      "type": "function"
    },
    {
      "inputs": [],
      "name": "MIN_GOAL",
      "outputs": [
        {
          "internalType": "uint256",
          "name": "",
          "type": "uint256"
        }
      ],
      "stateMutability": "view",
      "type": "function"
    },
    {
      "inputs": [],
      "name": "WITHDRAW_PERCENT",
      "outputs": [
        {
          "internalType": "uint256",
          "name": "",
          "type": "uint256"
        }
      ],
      "stateMutability": "view",
      "type": "function"
    },
    {
      "inputs": [
        {
          "internalType": "uint256",
          "name": "_campaignId",
          "type": "uint256"
        }
      ],
      "name": "calculateWithdrawAmount",
      "outputs": [
        {
          "internalType": "uint256",
          "name": "",
          "type": "uint256"
        }
      ],
      "stateMutability": "view",
      "type": "function"
    },
    {
      "inputs": [],
      "name": "campaignCount",
      "outputs": [
        {
          "internalType": "uint256",
          "name": "",
          "type": "uint256"
        }
      ],
      "stateMutability": "view",
      "type": "function"
    },
    {
      "inputs": [
        {
          "internalType": "uint256",
          "name": "",
          "type": "uint256"
        }
      ],
      "name": "campaigns",
      "outputs": [
        {
          "internalType": "uint256",
          "name": "id",
          "type": "uint256"
        },
        {
          "internalType": "address",
          "name": "creator",
          "type": "address"
        },
        {
          "internalType": "string",
          "name": "metadataUrl",
          "type": "string"
        },
        {
          "internalType": "uint256",
          "name": "goal",
          "type": "uint256"
        },
        {
          "internalType": "uint256",
          "name": "deadline",
          "type": "uint256"
        },
        {
          "internalType": "uint256",
          "name": "fundsRaised",
          "type": "uint256"
        },
        {
          "internalType": "uint256",
          "name": "totalContributors",
          "type": "uint256"
        },
        {
          "internalType": "bool",
          "name": "isClosed",
          "type": "bool"
        }
      ],
      "stateMutability": "view",
      "type": "function"
    },
    {
      "inputs": [],
      "name": "closedCampaigns",
      "outputs": [
        {
          "internalType": "uint256",
          "name": "",
          "type": "uint256"
        }
      ],
      "stateMutability": "view",
      "type": "function"
    },
    {
      "inputs": [],
      "name": "contractBalance",
      "outputs": [
        {
          "internalType": "uint256",
          "name": "",
          "type": "uint256"
        }
      ],
      "stateMutability": "view",
      "type": "function"
    },
    {
      "inputs": [
        {
          "internalType": "string",
          "name": "_metadataUrl",
          "type": "string"
        },
        {
          "internalType": "uint256",
          "name": "_goal",
          "type": "uint256"
        },
        {
          "internalType": "uint256",
          "name": "_duration",
          "type": "uint256"
        }
      ],
      "name": "createCampaign",
      "outputs": [],
      "stateMutability": "nonpayable",
      "type": "function"
    },
    {
      "inputs": [
        {
          "internalType": "uint256",
          "name": "_campaignId",
          "type": "uint256"
        }
      ],
      "name": "fundCampaign",
      "outputs": [],
      "stateMutability": "payable",
      "type": "function"
    },
    {
      "inputs": [
        {
          "internalType": "uint256",
          "name": "_campaignId",
          "type": "uint256"
        },
        {
          "internalType": "address",
          "name": "_contributor",
          "type": "address"
        }
      ],
      "name": "getContribution",
      "outputs": [
        {
          "internalType": "uint256",
          "name": "",
          "type": "uint256"
        }
      ],
      "stateMutability": "view",
      "type": "function"
    },
    {
      "inputs": [
        {
          "internalType": "uint256",
          "name": "_campaignId",
          "type": "uint256"
        }
      ],
      "name": "isClosed",
      "outputs": [
        {
          "internalType": "bool",
          "name": "",
          "type": "bool"
        }
      ],
      "stateMutability": "view",
      "type": "function"
    },
    {
      "inputs": [
        {
          "internalType": "uint256",
          "name": "_campaignId",
          "type": "uint256"
        }
      ],
      "name": "isStopped",
      "outputs": [
        {
          "internalType": "bool",
          "name": "",
          "type": "bool"
        }
      ],
      "stateMutability": "view",
      "type": "function"
    },
    {
      "inputs": [],
      "name": "owner",
      "outputs": [
        {
          "internalType": "address",
          "name": "",
          "type": "address"
        }
      ],
      "stateMutability": "view",
      "type": "function"
    },
    {
      "inputs": [
        {
          "internalType": "uint256",
          "name": "_campaignId",
          "type": "uint256"
        }
      ],
      "name": "stop",
      "outputs": [],
      "stateMutability": "nonpayable",
      "type": "function"
    },
    {
      "inputs": [
        {
          "internalType": "uint256",
          "name": "",
          "type": "uint256"
        }
      ],
      "name": "stoppedCampaigns",
      "outputs": [
        {
          "internalType": "bool",
          "name": "",
          "type": "bool"
        }
      ],
      "stateMutability": "view",
      "type": "function"
    },
    {
      "inputs": [
        {
          "internalType": "uint256",
          "name": "_campaignId",
          "type": "uint256"
        }
      ],
      "name": "takeRefund",
      "outputs": [],
      "stateMutability": "nonpayable",
      "type": "function"
    },
    {
      "inputs": [
        {
          "internalType": "uint256",
          "name": "_amount",
          "type": "uint256"
        },
        {
          "internalType": "address",
          "name": "_receiver",
          "type": "address"
        }
      ],
      "name": "transfer",
      "outputs": [],
      "stateMutability": "nonpayable",
      "type": "function"
    },
    {
      "inputs": [
        {
          "internalType": "address",
          "name": "",
          "type": "address"
        }
      ],
      "name": "usersCampaigns",
      "outputs": [
        {
          "internalType": "uint256",
          "name": "",
          "type": "uint256"
        }
      ],
      "stateMutability": "view",
      "type": "function"
    },
    {
      "inputs": [
        {
          "internalType": "uint256",
          "name": "_amount",
          "type": "uint256"
        }
      ],
      "name": "withdraw",
      "outputs": [],
      "stateMutability": "nonpayable",
      "type": "function"
    },
    {
      "inputs": [
        {
          "internalType": "uint256",
          "name": "_campaignId",
          "type": "uint256"
        }
      ],
      "name": "withdrawFunds",
      "outputs": [],
      "stateMutability": "nonpayable",
      "type": "function"
    }
  ],
  "bytecode": "0x6080604052348015600f57600080fd5b50336000806101000a81548173ffffffffffffffffffffffffffffffffffffffff021916908373ffffffffffffffffffffffffffffffffffffffff160217905550612cea8061005f6000396000f3fe6080604052600436106101355760003560e01c80638b7afe2e116100ab578063bb874be01161006f578063bb874be01461040c578063bc86bd7814610449578063d5c78a2814610474578063e081dbf9146104b1578063fa257d54146104ee578063fde6c9fb1461051957610135565b80638b7afe2e146103465780638da5cb5b1461037157806392bd38bc1461039c578063b6a6d177146103b8578063b7760c8f146103e357610135565b80632e1a7d4d116100fd5780632e1a7d4d146102385780633020580b146102615780636299f8cf1461028a5780636f276c99146102b35780637274e30d146102f0578063803517901461031b57610135565b8063041ae4c61461013a57806313efb76114610165578063141961bc1461018e578063155dd5ee146101d2578063174b0849146101fb575b600080fd5b34801561014657600080fd5b5061014f610556565b60405161015c919061193c565b60405180910390f35b34801561017157600080fd5b5061018c60048036038101906101879190611997565b610561565b005b34801561019a57600080fd5b506101b560048036038101906101b09190611997565b6107b8565b6040516101c9989796959493929190611ab0565b60405180910390f35b3480156101de57600080fd5b506101f960048036038101906101f49190611997565b6108b5565b005b34801561020757600080fd5b50610222600480360381019061021d9190611997565b610b7e565b60405161022f9190611b35565b60405180910390f35b34801561024457600080fd5b5061025f600480360381019061025a9190611997565b610b9e565b005b34801561026d57600080fd5b5061028860048036038101906102839190611c85565b610d2b565b005b34801561029657600080fd5b506102b160048036038101906102ac9190611997565b610fec565b005b3480156102bf57600080fd5b506102da60048036038101906102d59190611997565b6113a3565b6040516102e79190611b35565b60405180910390f35b3480156102fc57600080fd5b506103056113cd565b604051610312919061193c565b60405180910390f35b34801561032757600080fd5b506103306113d3565b60405161033d919061193c565b60405180910390f35b34801561035257600080fd5b5061035b6113d9565b604051610368919061193c565b60405180910390f35b34801561037d57600080fd5b506103866113df565b6040516103939190611cf4565b60405180910390f35b6103b660048036038101906103b19190611997565b611403565b005b3480156103c457600080fd5b506103cd61161f565b6040516103da919061193c565b60405180910390f35b3480156103ef57600080fd5b5061040a60048036038101906104059190611d3b565b611626565b005b34801561041857600080fd5b50610433600480360381019061042e9190611d7b565b611839565b604051610440919061193c565b60405180910390f35b34801561045557600080fd5b5061045e611851565b60405161046b919061193c565b60405180910390f35b34801561048057600080fd5b5061049b60048036038101906104969190611997565b611856565b6040516104a89190611b35565b60405180910390f35b3480156104bd57600080fd5b506104d860048036038101906104d39190611d3b565b611883565b6040516104e5919061193c565b60405180910390f35b3480156104fa57600080fd5b506105036118e1565b604051610510919061193c565b60405180910390f35b34801561052557600080fd5b50610540600480360381019061053b9190611997565b6118e6565b60405161054d919061193c565b60405180910390f35b662386f26fc1000081565b600061056d8233611883565b90506006600083815260200190815260200160002060009054906101000a900460ff166105cf576040517f08c379a00000000000000000000000000000000000000000000000000000000081526004016105c690611e1a565b60405180910390fd5b60018111610612576040517f08c379a000000000000000000000000000000000000000000000000000000000815260040161060990611e86565b60405180910390fd5b60006004600084815260200190815260200160002090503373ffffffffffffffffffffffffffffffffffffffff168160010160009054906101000a900473ffffffffffffffffffffffffffffffffffffffff1673ffffffffffffffffffffffffffffffffffffffff16036106bb576040517f08c379a00000000000000000000000000000000000000000000000000000000081526004016106b290611f18565b60405180910390fd5b3373ffffffffffffffffffffffffffffffffffffffff166108fc839081150290604051600060405180830381858888f19350505050158015610701573d6000803e3d6000fd5b50818160050160008282546107169190611f67565b9250508190555060018160080160003373ffffffffffffffffffffffffffffffffffffffff1673ffffffffffffffffffffffffffffffffffffffff168152602001908152602001600020819055503373ffffffffffffffffffffffffffffffffffffffff16837f7ca5472b7ea78c2c0141c5a12ee6d170cf4ce8ed06be3d22c8252ddfc7a6a2c4846040516107ab919061193c565b60405180910390a3505050565b60046020528060005260406000206000915090508060000154908060010160009054906101000a900473ffffffffffffffffffffffffffffffffffffffff169080600201805461080790611fca565b80601f016020809104026020016040519081016040528092919081815260200182805461083390611fca565b80156108805780601f1061085557610100808354040283529160200191610880565b820191906000526020600020905b81548152906001019060200180831161086357829003601f168201915b5050505050908060030154908060040154908060050154908060060154908060070160009054906101000a900460ff16905088565b60006004600083815260200190815260200160002090508060010160009054906101000a900473ffffffffffffffffffffffffffffffffffffffff1673ffffffffffffffffffffffffffffffffffffffff163373ffffffffffffffffffffffffffffffffffffffff161461095e576040517f08c379a000000000000000000000000000000000000000000000000000000000815260040161095590612047565b60405180910390fd5b8060070160009054906101000a900460ff16156109b0576040517f08c379a00000000000000000000000000000000000000000000000000000000081526004016109a7906120d9565b60405180910390fd5b806003015481600501541015806109ca5750806004015442115b610a09576040517f08c379a0000000000000000000000000000000000000000000000000000000008152600401610a009061216b565b60405180910390fd5b60006064605f8360050154610a1e919061218b565b610a2891906121fc565b90506000818360050154610a3c9190611f67565b90503373ffffffffffffffffffffffffffffffffffffffff166108fc839081150290604051600060405180830381858888f19350505050158015610a84573d6000803e3d6000fd5b508060036000828254610a97919061222d565b9250508190555060018360070160006101000a81548160ff021916908315150217905550600560003373ffffffffffffffffffffffffffffffffffffffff1673ffffffffffffffffffffffffffffffffffffffff1681526020019081526020016000206000815480929190610b0b90612261565b919050555060026000815480929190610b239061228a565b91905055503373ffffffffffffffffffffffffffffffffffffffff167fcf7d23a3cbe4e8b36ff82fd1b05b1b17373dc7804b4ebbd6e2356716ef2023728584604051610b709291906122d2565b60405180910390a250505050565b60066020528060005260406000206000915054906101000a900460ff1681565b60008054906101000a900473ffffffffffffffffffffffffffffffffffffffff1673ffffffffffffffffffffffffffffffffffffffff163373ffffffffffffffffffffffffffffffffffffffff1614610c2c576040517f08c379a0000000000000000000000000000000000000000000000000000000008152600401610c2390612347565b60405180910390fd5b600354811115610c71576040517f08c379a0000000000000000000000000000000000000000000000000000000008152600401610c68906123b3565b60405180910390fd5b60008054906101000a900473ffffffffffffffffffffffffffffffffffffffff1673ffffffffffffffffffffffffffffffffffffffff166108fc829081150290604051600060405180830381858888f19350505050158015610cd7573d6000803e3d6000fd5b508060036000828254610cea9190611f67565b925050819055507f0af52a7c1fa7dfbcd67f2010bccb35424ce578855b52618e6aefc3bf338e828b81604051610d20919061193c565b60405180910390a150565b662386f26fc10000821015610d75576040517f08c379a0000000000000000000000000000000000000000000000000000000008152600401610d6c90612445565b60405180910390fd5b62015180811015610dbb576040517f08c379a0000000000000000000000000000000000000000000000000000000008152600401610db2906124d7565b60405180910390fd5b60008054906101000a900473ffffffffffffffffffffffffffffffffffffffff1673ffffffffffffffffffffffffffffffffffffffff163373ffffffffffffffffffffffffffffffffffffffff161480610e5457506003600560003373ffffffffffffffffffffffffffffffffffffffff1673ffffffffffffffffffffffffffffffffffffffff16815260200190815260200160002054105b610e93576040517f08c379a0000000000000000000000000000000000000000000000000000000008152600401610e8a90612569565b60405180910390fd5b600060046000600154815260200190815260200160002090506001548160000181905550338160010160006101000a81548173ffffffffffffffffffffffffffffffffffffffff021916908373ffffffffffffffffffffffffffffffffffffffff16021790555083816002019081610f0b9190612735565b508281600301819055508142610f21919061222d565b8160040181905550600560003373ffffffffffffffffffffffffffffffffffffffff1673ffffffffffffffffffffffffffffffffffffffff1681526020019081526020016000206000815480929190610f799061228a565b919050555060016000815480929190610f919061228a565b91905055503373ffffffffffffffffffffffffffffffffffffffff167f633109eec20320eded000fc1e2634211aa7e92ba3f5b15faf6dcdafca05094e4600154604051610fde919061193c565b60405180910390a250505050565b60006004600083815260200190815260200160002090503373ffffffffffffffffffffffffffffffffffffffff1660008054906101000a900473ffffffffffffffffffffffffffffffffffffffff1673ffffffffffffffffffffffffffffffffffffffff1614806110ac57508060010160009054906101000a900473ffffffffffffffffffffffffffffffffffffffff1673ffffffffffffffffffffffffffffffffffffffff163373ffffffffffffffffffffffffffffffffffffffff16145b6110eb576040517f08c379a00000000000000000000000000000000000000000000000000000000081526004016110e290612879565b60405180910390fd5b6006600083815260200190815260200160002060009054906101000a900460ff161561114c576040517f08c379a0000000000000000000000000000000000000000000000000000000008152600401611143906128e5565b60405180910390fd5b8060070160009054906101000a900460ff161561119e576040517f08c379a000000000000000000000000000000000000000000000000000000000815260040161119590612951565b60405180910390fd5b806004015442106111e4576040517f08c379a00000000000000000000000000000000000000000000000000000000081526004016111db906129bd565b60405180910390fd5b60016006600084815260200190815260200160002060006101000a81548160ff02191690831515021790555060018160070160006101000a81548160ff021916908315150217905550600560008260010160009054906101000a900473ffffffffffffffffffffffffffffffffffffffff1673ffffffffffffffffffffffffffffffffffffffff1673ffffffffffffffffffffffffffffffffffffffff16815260200190815260200160002060008154809291906112a190612261565b9190505550600260008154809291906112b99061228a565b919050555060006112ee838360010160009054906101000a900473ffffffffffffffffffffffffffffffffffffffff16611883565b9050600081111561131357806003600082825461130b919061222d565b925050819055505b7fcdd56f57c4ec518d061d6876d0e03da1d1ccab1a7266d4b389e5b1cafc7a082e838360010160009054906101000a900473ffffffffffffffffffffffffffffffffffffffff1673ffffffffffffffffffffffffffffffffffffffff163373ffffffffffffffffffffffffffffffffffffffff16146040516113969291906129dd565b60405180910390a1505050565b60006006600083815260200190815260200160002060009054906101000a900460ff169050919050565b60015481565b60025481565b60035481565b60008054906101000a900473ffffffffffffffffffffffffffffffffffffffff1681565b600060046000838152602001908152602001600020905080600401544210611460576040517f08c379a000000000000000000000000000000000000000000000000000000000815260040161145790612a52565b60405180910390fd5b8060070160009054906101000a900460ff16156114b2576040517f08c379a00000000000000000000000000000000000000000000000000000000081526004016114a990612abe565b60405180910390fd5b600034116114f5576040517f08c379a00000000000000000000000000000000000000000000000000000000081526004016114ec90612b2a565b60405180910390fd5b60008160080160003373ffffffffffffffffffffffffffffffffffffffff1673ffffffffffffffffffffffffffffffffffffffff1681526020019081526020016000205403611559578060060160008154809291906115539061228a565b91905055505b3481600501600082825461156d919061222d565b92505081905550348160080160003373ffffffffffffffffffffffffffffffffffffffff1673ffffffffffffffffffffffffffffffffffffffff16815260200190815260200160002060008282546115c5919061222d565b925050819055503373ffffffffffffffffffffffffffffffffffffffff16827f38c48552690c96ec2872092ac1db6c19fb59f5a8c5b49bbf41ed4886d0ca692634604051611613919061193c565b60405180910390a35050565b6201518081565b60008054906101000a900473ffffffffffffffffffffffffffffffffffffffff1673ffffffffffffffffffffffffffffffffffffffff163373ffffffffffffffffffffffffffffffffffffffff16146116b4576040517f08c379a00000000000000000000000000000000000000000000000000000000081526004016116ab90612b96565b60405180910390fd5b60008054906101000a900473ffffffffffffffffffffffffffffffffffffffff1673ffffffffffffffffffffffffffffffffffffffff168173ffffffffffffffffffffffffffffffffffffffff1603611742576040517f08c379a000000000000000000000000000000000000000000000000000000000815260040161173990612c28565b60405180910390fd5b600354821115611787576040517f08c379a000000000000000000000000000000000000000000000000000000000815260040161177e90612c94565b60405180910390fd5b8073ffffffffffffffffffffffffffffffffffffffff166108fc839081150290604051600060405180830381858888f193505050501580156117cd573d6000803e3d6000fd5b5081600360008282546117e09190611f67565b925050819055508073ffffffffffffffffffffffffffffffffffffffff167fb1df4867a2dd271d32143c9f208fc2d9295e6a5458536b59670e56d337279a3f8360405161182d919061193c565b60405180910390a25050565b60056020528060005260406000206000915090505481565b605f81565b60006004600083815260200190815260200160002060070160009054906101000a900460ff169050919050565b60006004600084815260200190815260200160002060080160008373ffffffffffffffffffffffffffffffffffffffff1673ffffffffffffffffffffffffffffffffffffffff16815260200190815260200160002054905092915050565b600381565b6000806004600084815260200190815260200160002090506064605f8260050154611911919061218b565b61191b91906121fc565b915050919050565b6000819050919050565b61193681611923565b82525050565b6000602082019050611951600083018461192d565b92915050565b6000604051905090565b600080fd5b600080fd5b61197481611923565b811461197f57600080fd5b50565b6000813590506119918161196b565b92915050565b6000602082840312156119ad576119ac611961565b5b60006119bb84828501611982565b91505092915050565b600073ffffffffffffffffffffffffffffffffffffffff82169050919050565b60006119ef826119c4565b9050919050565b6119ff816119e4565b82525050565b600081519050919050565b600082825260208201905092915050565b60005b83811015611a3f578082015181840152602081019050611a24565b60008484015250505050565b6000601f19601f8301169050919050565b6000611a6782611a05565b611a718185611a10565b9350611a81818560208601611a21565b611a8a81611a4b565b840191505092915050565b60008115159050919050565b611aaa81611a95565b82525050565b600061010082019050611ac6600083018b61192d565b611ad3602083018a6119f6565b8181036040830152611ae58189611a5c565b9050611af4606083018861192d565b611b01608083018761192d565b611b0e60a083018661192d565b611b1b60c083018561192d565b611b2860e0830184611aa1565b9998505050505050505050565b6000602082019050611b4a6000830184611aa1565b92915050565b600080fd5b600080fd5b7f4e487b7100000000000000000000000000000000000000000000000000000000600052604160045260246000fd5b611b9282611a4b565b810181811067ffffffffffffffff82111715611bb157611bb0611b5a565b5b80604052505050565b6000611bc4611957565b9050611bd08282611b89565b919050565b600067ffffffffffffffff821115611bf057611bef611b5a565b5b611bf982611a4b565b9050602081019050919050565b82818337600083830152505050565b6000611c28611c2384611bd5565b611bba565b905082815260208101848484011115611c4457611c43611b55565b5b611c4f848285611c06565b509392505050565b600082601f830112611c6c57611c6b611b50565b5b8135611c7c848260208601611c15565b91505092915050565b600080600060608486031215611c9e57611c9d611961565b5b600084013567ffffffffffffffff811115611cbc57611cbb611966565b5b611cc886828701611c57565b9350506020611cd986828701611982565b9250506040611cea86828701611982565b9150509250925092565b6000602082019050611d0960008301846119f6565b92915050565b611d18816119e4565b8114611d2357600080fd5b50565b600081359050611d3581611d0f565b92915050565b60008060408385031215611d5257611d51611961565b5b6000611d6085828601611982565b9250506020611d7185828601611d26565b9150509250929050565b600060208284031215611d9157611d90611961565b5b6000611d9f84828501611d26565b91505092915050565b7f526566756e64206973206f6e6c7920617661696c61626c6520666f722073746f60008201527f707065642063616d706169676e73000000000000000000000000000000000000602082015250565b6000611e04602e83611a10565b9150611e0f82611da8565b604082019050919050565b60006020820190508181036000830152611e3381611df7565b9050919050565b7f4e6f2066756e647320617661696c61626c6520666f7220726566756e64000000600082015250565b6000611e70601d83611a10565b9150611e7b82611e3a565b602082019050919050565b60006020820190508181036000830152611e9f81611e63565b9050919050565b7f43616d706169676e2063726561746f722063616e27742074616b65207265667560008201527f6e64000000000000000000000000000000000000000000000000000000000000602082015250565b6000611f02602283611a10565b9150611f0d82611ea6565b604082019050919050565b60006020820190508181036000830152611f3181611ef5565b9050919050565b7f4e487b7100000000000000000000000000000000000000000000000000000000600052601160045260246000fd5b6000611f7282611923565b9150611f7d83611923565b9250828203905081811115611f9557611f94611f38565b5b92915050565b7f4e487b7100000000000000000000000000000000000000000000000000000000600052602260045260246000fd5b60006002820490506001821680611fe257607f821691505b602082108103611ff557611ff4611f9b565b5b50919050565b7f4f6e6c792063726561746f722063616e20776974686472617700000000000000600082015250565b6000612031601983611a10565b915061203c82611ffb565b602082019050919050565b6000602082019050818103600083015261206081612024565b9050919050565b7f43616d706169676e20697320636c6f7365642e2046756e647320616c7265616460008201527f792077697468647261776e000000000000000000000000000000000000000000602082015250565b60006120c3602b83611a10565b91506120ce82612067565b604082019050919050565b600060208201905081810360008301526120f2816120b6565b9050919050565b7f5761697420666f722063616d706169676e20746f20657870697265206f72207260008201527f656163682066756e64696e6720676f616c000000000000000000000000000000602082015250565b6000612155603183611a10565b9150612160826120f9565b604082019050919050565b6000602082019050818103600083015261218481612148565b9050919050565b600061219682611923565b91506121a183611923565b92508282026121af81611923565b915082820484148315176121c6576121c5611f38565b5b5092915050565b7f4e487b7100000000000000000000000000000000000000000000000000000000600052601260045260246000fd5b600061220782611923565b915061221283611923565b925082612222576122216121cd565b5b828204905092915050565b600061223882611923565b915061224383611923565b925082820190508082111561225b5761225a611f38565b5b92915050565b600061226c82611923565b91506000820361227f5761227e611f38565b5b600182039050919050565b600061229582611923565b91507fffffffffffffffffffffffffffffffffffffffffffffffffffffffffffffffff82036122c7576122c6611f38565b5b600182019050919050565b60006040820190506122e7600083018561192d565b6122f4602083018461192d565b9392505050565b7f4f6e6c7920636f6e7472616374206f776e65722063616e207769746864726177600082015250565b6000612331602083611a10565b915061233c826122fb565b602082019050919050565b6000602082019050818103600083015261236081612324565b9050919050565b7f4e6f20617661696c61626c6520776974686472617761626c652066756e647300600082015250565b600061239d601f83611a10565b91506123a882612367565b602082019050919050565b600060208201905081810360008301526123cc81612390565b9050919050565b7f476f616c206d7573742062652067726561746572207468616e204d494e5f474f60008201527f414c000000000000000000000000000000000000000000000000000000000000602082015250565b600061242f602283611a10565b915061243a826123d3565b604082019050919050565b6000602082019050818103600083015261245e81612422565b9050919050565b7f4475726174696f6e206d7573742062652067726561746572207468616e204d4960008201527f4e5f4455524154494f4e00000000000000000000000000000000000000000000602082015250565b60006124c1602a83611a10565b91506124cc82612465565b604082019050919050565b600060208201905081810360008301526124f0816124b4565b9050919050565b7f4d61782063616d706169676e7320726561636865642e20436c6f736520736f6d60008201527f6520746f20637265617465206e6577206f6e6573000000000000000000000000602082015250565b6000612553603483611a10565b915061255e826124f7565b604082019050919050565b6000602082019050818103600083015261258281612546565b9050919050565b60008190508160005260206000209050919050565b60006020601f8301049050919050565b600082821b905092915050565b6000600883026125eb7fffffffffffffffffffffffffffffffffffffffffffffffffffffffffffffffff826125ae565b6125f586836125ae565b95508019841693508086168417925050509392505050565b6000819050919050565b600061263261262d61262884611923565b61260d565b611923565b9050919050565b6000819050919050565b61264c83612617565b61266061265882612639565b8484546125bb565b825550505050565b600090565b612675612668565b612680818484612643565b505050565b5b818110156126a45761269960008261266d565b600181019050612686565b5050565b601f8211156126e9576126ba81612589565b6126c38461259e565b810160208510156126d2578190505b6126e66126de8561259e565b830182612685565b50505b505050565b600082821c905092915050565b600061270c600019846008026126ee565b1980831691505092915050565b600061272583836126fb565b9150826002028217905092915050565b61273e82611a05565b67ffffffffffffffff81111561275757612756611b5a565b5b6127618254611fca565b61276c8282856126a8565b600060209050601f83116001811461279f576000841561278d578287015190505b6127978582612719565b8655506127ff565b601f1984166127ad86612589565b60005b828110156127d5578489015182556001820191506020850194506020810190506127b0565b868310156127f257848901516127ee601f8916826126fb565b8355505b6001600288020188555050505b505050505050565b7f4f6e6c792063726561746f72206f722061646d696e2063616e2073746f70206160008201527f2063616d706169676e0000000000000000000000000000000000000000000000602082015250565b6000612863602983611a10565b915061286e82612807565b604082019050919050565b6000602082019050818103600083015261289281612856565b9050919050565b7f43616d706169676e20697320616c72656164792073746f707065640000000000600082015250565b60006128cf601b83611a10565b91506128da82612899565b602082019050919050565b600060208201905081810360008301526128fe816128c2565b9050919050565b7f43616d706169676e20697320616c726561647920636c6f736564000000000000600082015250565b600061293b601a83611a10565b915061294682612905565b602082019050919050565b6000602082019050818103600083015261296a8161292e565b9050919050565b7f43616d706169676e206861732065787069726564000000000000000000000000600082015250565b60006129a7601483611a10565b91506129b282612971565b602082019050919050565b600060208201905081810360008301526129d68161299a565b9050919050565b60006040820190506129f2600083018561192d565b6129ff6020830184611aa1565b9392505050565b7f43616d706169676e206578706972656400000000000000000000000000000000600082015250565b6000612a3c601083611a10565b9150612a4782612a06565b602082019050919050565b60006020820190508181036000830152612a6b81612a2f565b9050919050565b7f43616d706169676e20697320636c6f7365640000000000000000000000000000600082015250565b6000612aa8601283611a10565b9150612ab382612a72565b602082019050919050565b60006020820190508181036000830152612ad781612a9b565b9050919050565b7f4d7573742073656e642045544800000000000000000000000000000000000000600082015250565b6000612b14600d83611a10565b9150612b1f82612ade565b602082019050919050565b60006020820190508181036000830152612b4381612b07565b9050919050565b7f4f6e6c7920636f6e7472616374206f776e65722063616e207472616e73666572600082015250565b6000612b80602083611a10565b9150612b8b82612b4a565b602082019050919050565b60006020820190508181036000830152612baf81612b73565b9050919050565b7f4f776e65722073686f756c64207573652077697468647261772066756e63746960008201527f6f6e000000000000000000000000000000000000000000000000000000000000602082015250565b6000612c12602283611a10565b9150612c1d82612bb6565b604082019050919050565b60006020820190508181036000830152612c4181612c05565b9050919050565b7f4e6f20617661696c61626c65207472616e736665727261626c652066756e6473600082015250565b6000612c7e602083611a10565b9150612c8982612c48565b602082019050919050565b60006020820190508181036000830152612cad81612c71565b905091905056fea26469706673582212208ca7b8d01f6163fe6dba142844bb1bb24af2ab3aef72cde782cda7a7e1b4bf0064736f6c634300081c0033",
  "linkReferences": {},
  "deployedLinkReferences": {}
}