{
  "_format": "hh-sol-artifact-1",
  "contractName": "Crowdfund",
  "sourceName": "contracts/Crowdfund.sol",
  "abi": [
    {
      "inputs": [],
      "stateMutability": "nonpayable",
      "type": "constructor"
    },
    {
      "anonymous": false,
      "inputs": [
        {
          "indexed": false,
          "internalType": "uint256",
          "name": "campaignId",
          "type": "uint256"
        },
        {
          "indexed": true,
          "internalType": "address",
          "name": "creator",
          "type": "address"
        }
      ],
      "name": "CampaignCreated",
      "type": "event"
    },
    {
      "anonymous": false,
      "inputs": [
        {
          "indexed": true,
          "internalType": "uint256",
          "name": "actionType",
          "type": "uint256"
        },
        {
          "indexed": false,
          "internalType": "uint256",
          "name": "campaignId",
          "type": "uint256"
        },
        {
          "indexed": false,
          "internalType": "uint256",
          "name": "amount",
          "type": "uint256"
        }
      ],
      "name": "ContractFundsIncreased",
      "type": "event"
    },
    {
      "anonymous": false,
      "inputs": [
        {
          "indexed": true,
          "internalType": "address",
          "name": "receiver",
          "type": "address"
        },
        {
          "indexed": false,
          "internalType": "uint256",
          "name": "amount",
          "type": "uint256"
        }
      ],
      "name": "ContractFundsTransferred",
      "type": "event"
    },
    {
      "anonymous": false,
      "inputs": [
        {
          "indexed": false,
          "internalType": "uint256",
          "name": "amount",
          "type": "uint256"
        }
      ],
      "name": "ContractFundsWithdrawn",
      "type": "event"
    },
    {
      "anonymous": false,
      "inputs": [
        {
          "indexed": true,
          "internalType": "uint256",
          "name": "campaignId",
          "type": "uint256"
        },
        {
          "indexed": true,
          "internalType": "address",
          "name": "backer",
          "type": "address"
        },
        {
          "indexed": false,
          "internalType": "uint256",
          "name": "amount",
          "type": "uint256"
        }
      ],
      "name": "Funded",
      "type": "event"
    },
    {
      "anonymous": false,
      "inputs": [
        {
          "indexed": true,
          "internalType": "uint256",
          "name": "campaignId",
          "type": "uint256"
        },
        {
          "indexed": true,
          "internalType": "address",
          "name": "backer",
          "type": "address"
        },
        {
          "indexed": false,
          "internalType": "uint256",
          "name": "amount",
          "type": "uint256"
        }
      ],
      "name": "Refunded",
      "type": "event"
    },
    {
      "anonymous": false,
      "inputs": [
        {
          "indexed": false,
          "internalType": "uint256",
          "name": "campaignId",
          "type": "uint256"
        },
        {
          "indexed": false,
          "internalType": "bool",
          "name": "byCreator",
          "type": "bool"
        }
      ],
      "name": "Stopped",
      "type": "event"
    },
    {
      "anonymous": false,
      "inputs": [
        {
          "indexed": false,
          "internalType": "uint256",
          "name": "campaignId",
          "type": "uint256"
        },
        {
          "indexed": true,
          "internalType": "address",
          "name": "creator",
          "type": "address"
        },
        {
          "indexed": false,
          "internalType": "uint256",
          "name": "amount",
          "type": "uint256"
        }
      ],
      "name": "Withdrawn",
      "type": "event"
    },
    {
      "inputs": [],
      "name": "MAX_CAMPAIGNS",
      "outputs": [
        {
          "internalType": "uint256",
          "name": "",
          "type": "uint256"
        }
      ],
      "stateMutability": "view",
      "type": "function"
    },
    {
      "inputs": [],
      "name": "MIN_DURATION",
      "outputs": [
        {
          "internalType": "uint256",
          "name": "",
          "type": "uint256"
        }
      ],
      "stateMutability": "view",
      "type": "function"
    },
    {
      "inputs": [],
      "name": "MIN_GOAL",
      "outputs": [
        {
          "internalType": "uint256",
          "name": "",
          "type": "uint256"
        }
      ],
      "stateMutability": "view",
      "type": "function"
    },
    {
      "inputs": [],
      "name": "WITHDRAW_PERCENT",
      "outputs": [
        {
          "internalType": "uint256",
          "name": "",
          "type": "uint256"
        }
      ],
      "stateMutability": "view",
      "type": "function"
    },
    {
      "inputs": [
        {
          "internalType": "uint256",
          "name": "_campaignId",
          "type": "uint256"
        }
      ],
      "name": "calculateWithdrawAmount",
      "outputs": [
        {
          "internalType": "uint256",
          "name": "",
          "type": "uint256"
        }
      ],
      "stateMutability": "view",
      "type": "function"
    },
    {
      "inputs": [],
      "name": "campaignCount",
      "outputs": [
        {
          "internalType": "uint256",
          "name": "",
          "type": "uint256"
        }
      ],
      "stateMutability": "view",
      "type": "function"
    },
    {
      "inputs": [
        {
          "internalType": "uint256",
          "name": "",
          "type": "uint256"
        }
      ],
      "name": "campaigns",
      "outputs": [
        {
          "internalType": "uint256",
          "name": "id",
          "type": "uint256"
        },
        {
          "internalType": "address",
          "name": "creator",
          "type": "address"
        },
        {
          "internalType": "string",
          "name": "metadataUrl",
          "type": "string"
        },
        {
          "internalType": "uint256",
          "name": "goal",
          "type": "uint256"
        },
        {
          "internalType": "uint256",
          "name": "deadline",
          "type": "uint256"
        },
        {
          "internalType": "uint256",
          "name": "fundsRaised",
          "type": "uint256"
        },
        {
          "internalType": "uint256",
          "name": "totalContributors",
          "type": "uint256"
        },
        {
          "internalType": "bool",
          "name": "isClosed",
          "type": "bool"
        }
      ],
      "stateMutability": "view",
      "type": "function"
    },
    {
      "inputs": [],
      "name": "closedCampaigns",
      "outputs": [
        {
          "internalType": "uint256",
          "name": "",
          "type": "uint256"
        }
      ],
      "stateMutability": "view",
      "type": "function"
    },
    {
      "inputs": [],
      "name": "contractBalance",
      "outputs": [
        {
          "internalType": "uint256",
          "name": "",
          "type": "uint256"
        }
      ],
      "stateMutability": "view",
      "type": "function"
    },
    {
      "inputs": [
        {
          "internalType": "string",
          "name": "_metadataUrl",
          "type": "string"
        },
        {
          "internalType": "uint256",
          "name": "_goal",
          "type": "uint256"
        },
        {
          "internalType": "uint256",
          "name": "_duration",
          "type": "uint256"
        }
      ],
      "name": "createCampaign",
      "outputs": [],
      "stateMutability": "nonpayable",
      "type": "function"
    },
    {
      "inputs": [
        {
          "internalType": "uint256",
          "name": "_campaignId",
          "type": "uint256"
        }
      ],
      "name": "fundCampaign",
      "outputs": [],
      "stateMutability": "payable",
      "type": "function"
    },
    {
      "inputs": [
        {
          "internalType": "uint256",
          "name": "_campaignId",
          "type": "uint256"
        },
        {
          "internalType": "address",
          "name": "_contributor",
          "type": "address"
        }
      ],
      "name": "getContribution",
      "outputs": [
        {
          "internalType": "uint256",
          "name": "",
          "type": "uint256"
        }
      ],
      "stateMutability": "view",
      "type": "function"
    },
    {
      "inputs": [],
      "name": "inSafeMode",
      "outputs": [
        {
          "internalType": "bool",
          "name": "",
          "type": "bool"
        }
      ],
      "stateMutability": "view",
      "type": "function"
    },
    {
      "inputs": [
        {
          "internalType": "uint256",
          "name": "_campaignId",
          "type": "uint256"
        }
      ],
      "name": "isClosed",
      "outputs": [
        {
          "internalType": "bool",
          "name": "",
          "type": "bool"
        }
      ],
      "stateMutability": "view",
      "type": "function"
    },
    {
      "inputs": [
        {
          "internalType": "uint256",
          "name": "_campaignId",
          "type": "uint256"
        }
      ],
      "name": "isStopped",
      "outputs": [
        {
          "internalType": "bool",
          "name": "",
          "type": "bool"
        }
      ],
      "stateMutability": "view",
      "type": "function"
    },
    {
      "inputs": [],
      "name": "noNewCampaigns",
      "outputs": [
        {
          "internalType": "bool",
          "name": "",
          "type": "bool"
        }
      ],
      "stateMutability": "view",
      "type": "function"
    },
    {
      "inputs": [],
      "name": "owner",
      "outputs": [
        {
          "internalType": "address",
          "name": "",
          "type": "address"
        }
      ],
      "stateMutability": "view",
      "type": "function"
    },
    {
      "inputs": [
        {
          "internalType": "bool",
          "name": "_status",
          "type": "bool"
        }
      ],
      "name": "setNoNewCampaigns",
      "outputs": [],
      "stateMutability": "nonpayable",
      "type": "function"
    },
    {
      "inputs": [
        {
          "internalType": "bool",
          "name": "_inSafeMode",
          "type": "bool"
        }
      ],
      "name": "setSafeMode",
      "outputs": [],
      "stateMutability": "nonpayable",
      "type": "function"
    },
    {
      "inputs": [
        {
          "internalType": "uint256",
          "name": "_campaignId",
          "type": "uint256"
        }
      ],
      "name": "stop",
      "outputs": [],
      "stateMutability": "nonpayable",
      "type": "function"
    },
    {
      "inputs": [
        {
          "internalType": "uint256",
          "name": "",
          "type": "uint256"
        }
      ],
      "name": "stoppedCampaigns",
      "outputs": [
        {
          "internalType": "bool",
          "name": "",
          "type": "bool"
        }
      ],
      "stateMutability": "view",
      "type": "function"
    },
    {
      "inputs": [
        {
          "internalType": "uint256",
          "name": "_campaignId",
          "type": "uint256"
        }
      ],
      "name": "takeRefund",
      "outputs": [],
      "stateMutability": "nonpayable",
      "type": "function"
    },
    {
      "inputs": [
        {
          "internalType": "uint256",
          "name": "_amount",
          "type": "uint256"
        },
        {
          "internalType": "address",
          "name": "_receiver",
          "type": "address"
        }
      ],
      "name": "transfer",
      "outputs": [],
      "stateMutability": "nonpayable",
      "type": "function"
    },
    {
      "inputs": [
        {
          "internalType": "address",
          "name": "",
          "type": "address"
        }
      ],
      "name": "usersCampaigns",
      "outputs": [
        {
          "internalType": "uint256",
          "name": "",
          "type": "uint256"
        }
      ],
      "stateMutability": "view",
      "type": "function"
    },
    {
      "inputs": [
        {
          "internalType": "uint256",
          "name": "_amount",
          "type": "uint256"
        }
      ],
      "name": "withdraw",
      "outputs": [],
      "stateMutability": "nonpayable",
      "type": "function"
    },
    {
      "inputs": [
        {
          "internalType": "uint256",
          "name": "_campaignId",
          "type": "uint256"
        }
      ],
      "name": "withdrawFunds",
      "outputs": [],
      "stateMutability": "nonpayable",
      "type": "function"
    }
  ],
  "bytecode": "0x608060405260008060146101000a81548160ff02191690831515021790555060008060156101000a81548160ff021916908315150217905550348015604357600080fd5b50336000806101000a81548173ffffffffffffffffffffffffffffffffffffffff021916908373ffffffffffffffffffffffffffffffffffffffff1602179055506135e6806100936000396000f3fe6080604052600436106101815760003560e01c80638b7afe2e116100d1578063bc86bd781161008a578063ddc0d45311610064578063ddc0d4531461057c578063e081dbf9146105a5578063fa257d54146105e2578063fde6c9fb1461060d57610181565b8063bc86bd78146104e9578063c078e86d14610514578063d5c78a281461053f57610181565b80638b7afe2e146103e65780638da5cb5b1461041157806392bd38bc1461043c578063b6a6d17714610458578063b7760c8f14610483578063bb874be0146104ac57610181565b80633020580b1161013e5780636f276c99116101185780636f276c99146103285780637274e30d1461036557806380351790146103905780638a825331146103bb57610181565b80633020580b146102ad57806344b7e5f2146102d65780636299f8cf146102ff57610181565b8063041ae4c61461018657806313efb761146101b1578063141961bc146101da578063155dd5ee1461021e578063174b0849146102475780632e1a7d4d14610284575b600080fd5b34801561019257600080fd5b5061019b61064a565b6040516101a89190611fb7565b60405180910390f35b3480156101bd57600080fd5b506101d860048036038101906101d39190612012565b610655565b005b3480156101e657600080fd5b5061020160048036038101906101fc9190612012565b6108fc565b60405161021598979695949392919061212b565b60405180910390f35b34801561022a57600080fd5b5061024560048036038101906102409190612012565b6109f9565b005b34801561025357600080fd5b5061026e60048036038101906102699190612012565b610d4d565b60405161027b91906121b0565b60405180910390f35b34801561029057600080fd5b506102ab60048036038101906102a69190612012565b610d6d565b005b3480156102b957600080fd5b506102d460048036038101906102cf9190612300565b610f4a565b005b3480156102e257600080fd5b506102fd60048036038101906102f8919061239b565b6112ab565b005b34801561030b57600080fd5b5061032660048036038101906103219190612012565b6113ab565b005b34801561033457600080fd5b5061034f600480360381019061034a9190612012565b611808565b60405161035c91906121b0565b60405180910390f35b34801561037157600080fd5b5061037a611832565b6040516103879190611fb7565b60405180910390f35b34801561039c57600080fd5b506103a5611838565b6040516103b29190611fb7565b60405180910390f35b3480156103c757600080fd5b506103d061183e565b6040516103dd91906121b0565b60405180910390f35b3480156103f257600080fd5b506103fb611851565b6040516104089190611fb7565b60405180910390f35b34801561041d57600080fd5b50610426611857565b60405161043391906123c8565b60405180910390f35b61045660048036038101906104519190612012565b61187b565b005b34801561046457600080fd5b5061046d611ae7565b60405161047a9190611fb7565b60405180910390f35b34801561048f57600080fd5b506104aa60048036038101906104a5919061240f565b611aee565b005b3480156104b857600080fd5b506104d360048036038101906104ce919061244f565b611d51565b6040516104e09190611fb7565b60405180910390f35b3480156104f557600080fd5b506104fe611d69565b60405161050b9190611fb7565b60405180910390f35b34801561052057600080fd5b50610529611d6e565b60405161053691906121b0565b60405180910390f35b34801561054b57600080fd5b5061056660048036038101906105619190612012565b611d81565b60405161057391906121b0565b60405180910390f35b34801561058857600080fd5b506105a3600480360381019061059e919061239b565b611dae565b005b3480156105b157600080fd5b506105cc60048036038101906105c7919061240f565b611efe565b6040516105d99190611fb7565b60405180910390f35b3480156105ee57600080fd5b506105f7611f5c565b6040516106049190611fb7565b60405180910390f35b34801561061957600080fd5b50610634600480360381019061062f9190612012565b611f61565b6040516106419190611fb7565b60405180910390f35b662386f26fc1000081565b600060149054906101000a900460ff16156106a5576040517f08c379a000000000000000000000000000000000000000000000000000000000815260040161069c906124ee565b60405180910390fd5b60006106b18233611efe565b90506006600083815260200190815260200160002060009054906101000a900460ff16610713576040517f08c379a000000000000000000000000000000000000000000000000000000000815260040161070a90612580565b60405180910390fd5b60018111610756576040517f08c379a000000000000000000000000000000000000000000000000000000000815260040161074d906125ec565b60405180910390fd5b60006004600084815260200190815260200160002090503373ffffffffffffffffffffffffffffffffffffffff168160010160009054906101000a900473ffffffffffffffffffffffffffffffffffffffff1673ffffffffffffffffffffffffffffffffffffffff16036107ff576040517f08c379a00000000000000000000000000000000000000000000000000000000081526004016107f69061267e565b60405180910390fd5b8181600501600082825461081391906126cd565b9250508190555060018160080160003373ffffffffffffffffffffffffffffffffffffffff1673ffffffffffffffffffffffffffffffffffffffff168152602001908152602001600020819055503373ffffffffffffffffffffffffffffffffffffffff166108fc839081150290604051600060405180830381858888f193505050501580156108a7573d6000803e3d6000fd5b503373ffffffffffffffffffffffffffffffffffffffff16837f7ca5472b7ea78c2c0141c5a12ee6d170cf4ce8ed06be3d22c8252ddfc7a6a2c4846040516108ef9190611fb7565b60405180910390a3505050565b60046020528060005260406000206000915090508060000154908060010160009054906101000a900473ffffffffffffffffffffffffffffffffffffffff169080600201805461094b90612730565b80601f016020809104026020016040519081016040528092919081815260200182805461097790612730565b80156109c45780601f10610999576101008083540402835291602001916109c4565b820191906000526020600020905b8154815290600101906020018083116109a757829003601f168201915b5050505050908060030154908060040154908060050154908060060154908060070160009054906101000a900460ff16905088565b600060149054906101000a900460ff1615610a49576040517f08c379a0000000000000000000000000000000000000000000000000000000008152600401610a40906124ee565b60405180910390fd5b60006004600083815260200190815260200160002090508060010160009054906101000a900473ffffffffffffffffffffffffffffffffffffffff1673ffffffffffffffffffffffffffffffffffffffff163373ffffffffffffffffffffffffffffffffffffffff1614610af2576040517f08c379a0000000000000000000000000000000000000000000000000000000008152600401610ae9906127d3565b60405180910390fd5b8060070160009054906101000a900460ff1615610b44576040517f08c379a0000000000000000000000000000000000000000000000000000000008152600401610b3b90612865565b60405180910390fd5b80600301548160050154101580610b5e5750806004015442115b610b9d576040517f08c379a0000000000000000000000000000000000000000000000000000000008152600401610b94906128f7565b60405180910390fd5b60006064605f8360050154610bb29190612917565b610bbc9190612988565b90506000818360050154610bd091906126cd565b905060018360070160006101000a81548160ff0219169083151502179055503373ffffffffffffffffffffffffffffffffffffffff166108fc839081150290604051600060405180830381858888f19350505050158015610c35573d6000803e3d6000fd5b508060036000828254610c4891906129b9565b92505081905550600560003373ffffffffffffffffffffffffffffffffffffffff1673ffffffffffffffffffffffffffffffffffffffff1681526020019081526020016000206000815480929190610c9f906129ed565b919050555060026000815480929190610cb790612a16565b91905055503373ffffffffffffffffffffffffffffffffffffffff167fcf7d23a3cbe4e8b36ff82fd1b05b1b17373dc7804b4ebbd6e2356716ef2023728584604051610d04929190612a5e565b60405180910390a260007f1f34d69d487e6b240ad47312dd423beee4fee7b2fca7b517429f8c5247e5c9938583604051610d3f929190612a5e565b60405180910390a250505050565b60066020528060005260406000206000915054906101000a900460ff1681565b60008054906101000a900473ffffffffffffffffffffffffffffffffffffffff1673ffffffffffffffffffffffffffffffffffffffff163373ffffffffffffffffffffffffffffffffffffffff1614610dfb576040517f08c379a0000000000000000000000000000000000000000000000000000000008152600401610df290612af9565b60405180910390fd5b600060149054906101000a900460ff1615610e4b576040517f08c379a0000000000000000000000000000000000000000000000000000000008152600401610e42906124ee565b60405180910390fd5b600354811115610e90576040517f08c379a0000000000000000000000000000000000000000000000000000000008152600401610e8790612b65565b60405180910390fd5b8060036000828254610ea291906126cd565b9250508190555060008054906101000a900473ffffffffffffffffffffffffffffffffffffffff1673ffffffffffffffffffffffffffffffffffffffff166108fc829081150290604051600060405180830381858888f19350505050158015610f0f573d6000803e3d6000fd5b507f0af52a7c1fa7dfbcd67f2010bccb35424ce578855b52618e6aefc3bf338e828b81604051610f3f9190611fb7565b60405180910390a150565b600060149054906101000a900460ff1615610f9a576040517f08c379a0000000000000000000000000000000000000000000000000000000008152600401610f91906124ee565b60405180910390fd5b600060159054906101000a900460ff1615610fea576040517f08c379a0000000000000000000000000000000000000000000000000000000008152600401610fe190612bf7565b60405180910390fd5b662386f26fc10000821015611034576040517f08c379a000000000000000000000000000000000000000000000000000000000815260040161102b90612c89565b60405180910390fd5b6201518081101561107a576040517f08c379a000000000000000000000000000000000000000000000000000000000815260040161107190612d1b565b60405180910390fd5b60008054906101000a900473ffffffffffffffffffffffffffffffffffffffff1673ffffffffffffffffffffffffffffffffffffffff163373ffffffffffffffffffffffffffffffffffffffff16148061111357506003600560003373ffffffffffffffffffffffffffffffffffffffff1673ffffffffffffffffffffffffffffffffffffffff16815260200190815260200160002054105b611152576040517f08c379a000000000000000000000000000000000000000000000000000000000815260040161114990612dad565b60405180910390fd5b600060046000600154815260200190815260200160002090506001548160000181905550338160010160006101000a81548173ffffffffffffffffffffffffffffffffffffffff021916908373ffffffffffffffffffffffffffffffffffffffff160217905550838160020190816111ca9190612f79565b5082816003018190555081426111e091906129b9565b8160040181905550600560003373ffffffffffffffffffffffffffffffffffffffff1673ffffffffffffffffffffffffffffffffffffffff168152602001908152602001600020600081548092919061123890612a16565b91905055506001600081548092919061125090612a16565b91905055503373ffffffffffffffffffffffffffffffffffffffff167f633109eec20320eded000fc1e2634211aa7e92ba3f5b15faf6dcdafca05094e460015460405161129d9190611fb7565b60405180910390a250505050565b60008054906101000a900473ffffffffffffffffffffffffffffffffffffffff1673ffffffffffffffffffffffffffffffffffffffff163373ffffffffffffffffffffffffffffffffffffffff1614611339576040517f08c379a000000000000000000000000000000000000000000000000000000000815260040161133090612af9565b60405180910390fd5b801515600060149054906101000a900460ff1615150361138e576040517f08c379a0000000000000000000000000000000000000000000000000000000008152600401611385906130bd565b60405180910390fd5b80600060146101000a81548160ff02191690831515021790555050565b600060149054906101000a900460ff16156113fb576040517f08c379a00000000000000000000000000000000000000000000000000000000081526004016113f2906124ee565b60405180910390fd5b60006004600083815260200190815260200160002090503373ffffffffffffffffffffffffffffffffffffffff1660008054906101000a900473ffffffffffffffffffffffffffffffffffffffff1673ffffffffffffffffffffffffffffffffffffffff1614806114bb57508060010160009054906101000a900473ffffffffffffffffffffffffffffffffffffffff1673ffffffffffffffffffffffffffffffffffffffff163373ffffffffffffffffffffffffffffffffffffffff16145b6114fa576040517f08c379a00000000000000000000000000000000000000000000000000000000081526004016114f19061314f565b60405180910390fd5b6006600083815260200190815260200160002060009054906101000a900460ff161561155b576040517f08c379a0000000000000000000000000000000000000000000000000000000008152600401611552906131bb565b60405180910390fd5b8060070160009054906101000a900460ff16156115ad576040517f08c379a00000000000000000000000000000000000000000000000000000000081526004016115a490613227565b60405180910390fd5b806004015442106115f3576040517f08c379a00000000000000000000000000000000000000000000000000000000081526004016115ea90613293565b60405180910390fd5b60016006600084815260200190815260200160002060006101000a81548160ff02191690831515021790555060018160070160006101000a81548160ff021916908315150217905550600560008260010160009054906101000a900473ffffffffffffffffffffffffffffffffffffffff1673ffffffffffffffffffffffffffffffffffffffff1673ffffffffffffffffffffffffffffffffffffffff16815260200190815260200160002060008154809291906116b0906129ed565b9190505550600260008154809291906116c890612a16565b919050555060006116fd838360010160009054906101000a900473ffffffffffffffffffffffffffffffffffffffff16611efe565b9050600081111561177857806003600082825461171a91906129b9565b925050819055508082600501600082825461173591906126cd565b9250508190555060017f1f34d69d487e6b240ad47312dd423beee4fee7b2fca7b517429f8c5247e5c993848360405161176f929190612a5e565b60405180910390a25b7fcdd56f57c4ec518d061d6876d0e03da1d1ccab1a7266d4b389e5b1cafc7a082e838360010160009054906101000a900473ffffffffffffffffffffffffffffffffffffffff1673ffffffffffffffffffffffffffffffffffffffff163373ffffffffffffffffffffffffffffffffffffffff16146040516117fb9291906132b3565b60405180910390a1505050565b60006006600083815260200190815260200160002060009054906101000a900460ff169050919050565b60015481565b60025481565b600060159054906101000a900460ff1681565b60035481565b60008054906101000a900473ffffffffffffffffffffffffffffffffffffffff1681565b600060149054906101000a900460ff16156118cb576040517f08c379a00000000000000000000000000000000000000000000000000000000081526004016118c2906124ee565b60405180910390fd5b600060046000838152602001908152602001600020905080600401544210611928576040517f08c379a000000000000000000000000000000000000000000000000000000000815260040161191f90613328565b60405180910390fd5b8060070160009054906101000a900460ff161561197a576040517f08c379a000000000000000000000000000000000000000000000000000000000815260040161197190613394565b60405180910390fd5b600034116119bd576040517f08c379a00000000000000000000000000000000000000000000000000000000081526004016119b490613400565b60405180910390fd5b60008160080160003373ffffffffffffffffffffffffffffffffffffffff1673ffffffffffffffffffffffffffffffffffffffff1681526020019081526020016000205403611a2157806006016000815480929190611a1b90612a16565b91905055505b34816005016000828254611a3591906129b9565b92505081905550348160080160003373ffffffffffffffffffffffffffffffffffffffff1673ffffffffffffffffffffffffffffffffffffffff1681526020019081526020016000206000828254611a8d91906129b9565b925050819055503373ffffffffffffffffffffffffffffffffffffffff16827f38c48552690c96ec2872092ac1db6c19fb59f5a8c5b49bbf41ed4886d0ca692634604051611adb9190611fb7565b60405180910390a35050565b6201518081565b60008054906101000a900473ffffffffffffffffffffffffffffffffffffffff1673ffffffffffffffffffffffffffffffffffffffff163373ffffffffffffffffffffffffffffffffffffffff1614611b7c576040517f08c379a0000000000000000000000000000000000000000000000000000000008152600401611b7390612af9565b60405180910390fd5b600060149054906101000a900460ff1615611bcc576040517f08c379a0000000000000000000000000000000000000000000000000000000008152600401611bc3906124ee565b60405180910390fd5b60008054906101000a900473ffffffffffffffffffffffffffffffffffffffff1673ffffffffffffffffffffffffffffffffffffffff168173ffffffffffffffffffffffffffffffffffffffff1603611c5a576040517f08c379a0000000000000000000000000000000000000000000000000000000008152600401611c5190613492565b60405180910390fd5b600354821115611c9f576040517f08c379a0000000000000000000000000000000000000000000000000000000008152600401611c96906134fe565b60405180910390fd5b8160036000828254611cb191906126cd565b925050819055508073ffffffffffffffffffffffffffffffffffffffff166108fc839081150290604051600060405180830381858888f19350505050158015611cfe573d6000803e3d6000fd5b508073ffffffffffffffffffffffffffffffffffffffff167fb1df4867a2dd271d32143c9f208fc2d9295e6a5458536b59670e56d337279a3f83604051611d459190611fb7565b60405180910390a25050565b60056020528060005260406000206000915090505481565b605f81565b600060149054906101000a900460ff1681565b60006004600083815260200190815260200160002060070160009054906101000a900460ff169050919050565b60008054906101000a900473ffffffffffffffffffffffffffffffffffffffff1673ffffffffffffffffffffffffffffffffffffffff163373ffffffffffffffffffffffffffffffffffffffff1614611e3c576040517f08c379a0000000000000000000000000000000000000000000000000000000008152600401611e3390612af9565b60405180910390fd5b600060149054906101000a900460ff1615611e8c576040517f08c379a0000000000000000000000000000000000000000000000000000000008152600401611e83906124ee565b60405180910390fd5b801515600060159054906101000a900460ff16151503611ee1576040517f08c379a0000000000000000000000000000000000000000000000000000000008152600401611ed890613590565b60405180910390fd5b80600060156101000a81548160ff02191690831515021790555050565b60006004600084815260200190815260200160002060080160008373ffffffffffffffffffffffffffffffffffffffff1673ffffffffffffffffffffffffffffffffffffffff16815260200190815260200160002054905092915050565b600381565b6000806004600084815260200190815260200160002090506064605f8260050154611f8c9190612917565b611f969190612988565b915050919050565b6000819050919050565b611fb181611f9e565b82525050565b6000602082019050611fcc6000830184611fa8565b92915050565b6000604051905090565b600080fd5b600080fd5b611fef81611f9e565b8114611ffa57600080fd5b50565b60008135905061200c81611fe6565b92915050565b60006020828403121561202857612027611fdc565b5b600061203684828501611ffd565b91505092915050565b600073ffffffffffffffffffffffffffffffffffffffff82169050919050565b600061206a8261203f565b9050919050565b61207a8161205f565b82525050565b600081519050919050565b600082825260208201905092915050565b60005b838110156120ba57808201518184015260208101905061209f565b60008484015250505050565b6000601f19601f8301169050919050565b60006120e282612080565b6120ec818561208b565b93506120fc81856020860161209c565b612105816120c6565b840191505092915050565b60008115159050919050565b61212581612110565b82525050565b600061010082019050612141600083018b611fa8565b61214e602083018a612071565b818103604083015261216081896120d7565b905061216f6060830188611fa8565b61217c6080830187611fa8565b61218960a0830186611fa8565b61219660c0830185611fa8565b6121a360e083018461211c565b9998505050505050505050565b60006020820190506121c5600083018461211c565b92915050565b600080fd5b600080fd5b7f4e487b7100000000000000000000000000000000000000000000000000000000600052604160045260246000fd5b61220d826120c6565b810181811067ffffffffffffffff8211171561222c5761222b6121d5565b5b80604052505050565b600061223f611fd2565b905061224b8282612204565b919050565b600067ffffffffffffffff82111561226b5761226a6121d5565b5b612274826120c6565b9050602081019050919050565b82818337600083830152505050565b60006122a361229e84612250565b612235565b9050828152602081018484840111156122bf576122be6121d0565b5b6122ca848285612281565b509392505050565b600082601f8301126122e7576122e66121cb565b5b81356122f7848260208601612290565b91505092915050565b60008060006060848603121561231957612318611fdc565b5b600084013567ffffffffffffffff81111561233757612336611fe1565b5b612343868287016122d2565b935050602061235486828701611ffd565b925050604061236586828701611ffd565b9150509250925092565b61237881612110565b811461238357600080fd5b50565b6000813590506123958161236f565b92915050565b6000602082840312156123b1576123b0611fdc565b5b60006123bf84828501612386565b91505092915050565b60006020820190506123dd6000830184612071565b92915050565b6123ec8161205f565b81146123f757600080fd5b50565b600081359050612409816123e3565b92915050565b6000806040838503121561242657612425611fdc565b5b600061243485828601611ffd565b9250506020612445858286016123fa565b9150509250929050565b60006020828403121561246557612464611fdc565b5b6000612473848285016123fa565b91505092915050565b7f436f6e747261637420697320696e2073616665206d6f6465202852454144204f60008201527f4e4c592900000000000000000000000000000000000000000000000000000000602082015250565b60006124d860248361208b565b91506124e38261247c565b604082019050919050565b60006020820190508181036000830152612507816124cb565b9050919050565b7f526566756e64206973206f6e6c7920617661696c61626c6520666f722073746f60008201527f707065642063616d706169676e73000000000000000000000000000000000000602082015250565b600061256a602e8361208b565b91506125758261250e565b604082019050919050565b600060208201905081810360008301526125998161255d565b9050919050565b7f4e6f2066756e647320617661696c61626c6520666f7220726566756e64000000600082015250565b60006125d6601d8361208b565b91506125e1826125a0565b602082019050919050565b60006020820190508181036000830152612605816125c9565b9050919050565b7f43616d706169676e2063726561746f722063616e27742074616b65207265667560008201527f6e64000000000000000000000000000000000000000000000000000000000000602082015250565b600061266860228361208b565b91506126738261260c565b604082019050919050565b600060208201905081810360008301526126978161265b565b9050919050565b7f4e487b7100000000000000000000000000000000000000000000000000000000600052601160045260246000fd5b60006126d882611f9e565b91506126e383611f9e565b92508282039050818111156126fb576126fa61269e565b5b92915050565b7f4e487b7100000000000000000000000000000000000000000000000000000000600052602260045260246000fd5b6000600282049050600182168061274857607f821691505b60208210810361275b5761275a612701565b5b50919050565b7f4f6e6c792063616d706169676e2063726561746f722063616e2077697468647260008201527f6177000000000000000000000000000000000000000000000000000000000000602082015250565b60006127bd60228361208b565b91506127c882612761565b604082019050919050565b600060208201905081810360008301526127ec816127b0565b9050919050565b7f43616d706169676e20697320636c6f7365642e2046756e647320616c7265616460008201527f792077697468647261776e000000000000000000000000000000000000000000602082015250565b600061284f602b8361208b565b915061285a826127f3565b604082019050919050565b6000602082019050818103600083015261287e81612842565b9050919050565b7f5761697420666f722063616d706169676e20746f20657870697265206f72207260008201527f656163682066756e64696e6720676f616c000000000000000000000000000000602082015250565b60006128e160318361208b565b91506128ec82612885565b604082019050919050565b60006020820190508181036000830152612910816128d4565b9050919050565b600061292282611f9e565b915061292d83611f9e565b925082820261293b81611f9e565b915082820484148315176129525761295161269e565b5b5092915050565b7f4e487b7100000000000000000000000000000000000000000000000000000000600052601260045260246000fd5b600061299382611f9e565b915061299e83611f9e565b9250826129ae576129ad612959565b5b828204905092915050565b60006129c482611f9e565b91506129cf83611f9e565b92508282019050808211156129e7576129e661269e565b5b92915050565b60006129f882611f9e565b915060008203612a0b57612a0a61269e565b5b600182039050919050565b6000612a2182611f9e565b91507fffffffffffffffffffffffffffffffffffffffffffffffffffffffffffffffff8203612a5357612a5261269e565b5b600182019050919050565b6000604082019050612a736000830185611fa8565b612a806020830184611fa8565b9392505050565b7f4f6e6c79206f776e65722063616e2063616c6c20746869732066756e6374696f60008201527f6e00000000000000000000000000000000000000000000000000000000000000602082015250565b6000612ae360218361208b565b9150612aee82612a87565b604082019050919050565b60006020820190508181036000830152612b1281612ad6565b9050919050565b7f4e6f20617661696c61626c6520776974686472617761626c652066756e647300600082015250565b6000612b4f601f8361208b565b9150612b5a82612b19565b602082019050919050565b60006020820190508181036000830152612b7e81612b42565b9050919050565b7f4372656174696e67206e65772063616d706169676e732069732063757272656e60008201527f746c792064697361626c65642e20547279206c617465722e0000000000000000602082015250565b6000612be160388361208b565b9150612bec82612b85565b604082019050919050565b60006020820190508181036000830152612c1081612bd4565b9050919050565b7f476f616c206d7573742062652067726561746572207468616e204d494e5f474f60008201527f414c000000000000000000000000000000000000000000000000000000000000602082015250565b6000612c7360228361208b565b9150612c7e82612c17565b604082019050919050565b60006020820190508181036000830152612ca281612c66565b9050919050565b7f4475726174696f6e206d7573742062652067726561746572207468616e204d4960008201527f4e5f4455524154494f4e00000000000000000000000000000000000000000000602082015250565b6000612d05602a8361208b565b9150612d1082612ca9565b604082019050919050565b60006020820190508181036000830152612d3481612cf8565b9050919050565b7f4d61782063616d706169676e7320726561636865642e20436c6f736520736f6d60008201527f6520746f20637265617465206e6577206f6e6573000000000000000000000000602082015250565b6000612d9760348361208b565b9150612da282612d3b565b604082019050919050565b60006020820190508181036000830152612dc681612d8a565b9050919050565b60008190508160005260206000209050919050565b60006020601f8301049050919050565b600082821b905092915050565b600060088302612e2f7fffffffffffffffffffffffffffffffffffffffffffffffffffffffffffffffff82612df2565b612e398683612df2565b95508019841693508086168417925050509392505050565b6000819050919050565b6000612e76612e71612e6c84611f9e565b612e51565b611f9e565b9050919050565b6000819050919050565b612e9083612e5b565b612ea4612e9c82612e7d565b848454612dff565b825550505050565b600090565b612eb9612eac565b612ec4818484612e87565b505050565b5b81811015612ee857612edd600082612eb1565b600181019050612eca565b5050565b601f821115612f2d57612efe81612dcd565b612f0784612de2565b81016020851015612f16578190505b612f2a612f2285612de2565b830182612ec9565b50505b505050565b600082821c905092915050565b6000612f5060001984600802612f32565b1980831691505092915050565b6000612f698383612f3f565b9150826002028217905092915050565b612f8282612080565b67ffffffffffffffff811115612f9b57612f9a6121d5565b5b612fa58254612730565b612fb0828285612eec565b600060209050601f831160018114612fe35760008415612fd1578287015190505b612fdb8582612f5d565b865550613043565b601f198416612ff186612dcd565b60005b8281101561301957848901518255600182019150602085019450602081019050612ff4565b868310156130365784890151613032601f891682612f3f565b8355505b6001600288020188555050505b505050505050565b7f436f6e747261637420697320616c726561647920696e2074686973207374617460008201527f6500000000000000000000000000000000000000000000000000000000000000602082015250565b60006130a760218361208b565b91506130b28261304b565b604082019050919050565b600060208201905081810360008301526130d68161309a565b9050919050565b7f4f6e6c792063726561746f72206f722061646d696e2063616e2073746f70206160008201527f2063616d706169676e0000000000000000000000000000000000000000000000602082015250565b600061313960298361208b565b9150613144826130dd565b604082019050919050565b600060208201905081810360008301526131688161312c565b9050919050565b7f43616d706169676e20697320616c72656164792073746f707065640000000000600082015250565b60006131a5601b8361208b565b91506131b08261316f565b602082019050919050565b600060208201905081810360008301526131d481613198565b9050919050565b7f43616d706169676e20697320616c726561647920636c6f736564000000000000600082015250565b6000613211601a8361208b565b915061321c826131db565b602082019050919050565b6000602082019050818103600083015261324081613204565b9050919050565b7f43616d706169676e206861732065787069726564000000000000000000000000600082015250565b600061327d60148361208b565b915061328882613247565b602082019050919050565b600060208201905081810360008301526132ac81613270565b9050919050565b60006040820190506132c86000830185611fa8565b6132d5602083018461211c565b9392505050565b7f43616d706169676e206578706972656400000000000000000000000000000000600082015250565b600061331260108361208b565b915061331d826132dc565b602082019050919050565b6000602082019050818103600083015261334181613305565b9050919050565b7f43616d706169676e20697320636c6f7365640000000000000000000000000000600082015250565b600061337e60128361208b565b915061338982613348565b602082019050919050565b600060208201905081810360008301526133ad81613371565b9050919050565b7f4d7573742073656e642045544800000000000000000000000000000000000000600082015250565b60006133ea600d8361208b565b91506133f5826133b4565b602082019050919050565b60006020820190508181036000830152613419816133dd565b9050919050565b7f4f776e65722073686f756c64207573652077697468647261772066756e63746960008201527f6f6e000000000000000000000000000000000000000000000000000000000000602082015250565b600061347c60228361208b565b915061348782613420565b604082019050919050565b600060208201905081810360008301526134ab8161346f565b9050919050565b7f4e6f20617661696c61626c65207472616e736665727261626c652066756e6473600082015250565b60006134e860208361208b565b91506134f3826134b2565b602082019050919050565b60006020820190508181036000830152613517816134db565b9050919050565b7f4e6577207374617475732063616e27742062652073616d65206173206375727260008201527f656e740000000000000000000000000000000000000000000000000000000000602082015250565b600061357a60238361208b565b91506135858261351e565b604082019050919050565b600060208201905081810360008301526135a98161356d565b905091905056fea264697066735822122030802d1dd772798eab0ae456adb2eb77aa6d27193457bbd628f8d7202f13636c64736f6c634300081c0033",
  "linkReferences": {},
  "deployedLinkReferences": {}
}