{
  "_format": "hh-sol-artifact-1",
  "contractName": "Crowdfund",
  "sourceName": "contracts/Crowdfund.sol",
  "abi": [
    {
      "inputs": [],
      "stateMutability": "nonpayable",
      "type": "constructor"
    },
    {
      "anonymous": false,
      "inputs": [
        {
          "indexed": false,
          "internalType": "uint256",
          "name": "campaignId",
          "type": "uint256"
        },
        {
          "indexed": true,
          "internalType": "address",
          "name": "creator",
          "type": "address"
        }
      ],
      "name": "CampaignCreated",
      "type": "event"
    },
    {
      "anonymous": false,
      "inputs": [
        {
          "indexed": true,
          "internalType": "uint256",
          "name": "actionType",
          "type": "uint256"
        },
        {
          "indexed": false,
          "internalType": "uint256",
          "name": "campaignId",
          "type": "uint256"
        },
        {
          "indexed": false,
          "internalType": "uint256",
          "name": "amount",
          "type": "uint256"
        }
      ],
      "name": "ContractFundsIncreased",
      "type": "event"
    },
    {
      "anonymous": false,
      "inputs": [
        {
          "indexed": true,
          "internalType": "address",
          "name": "receiver",
          "type": "address"
        },
        {
          "indexed": false,
          "internalType": "uint256",
          "name": "amount",
          "type": "uint256"
        }
      ],
      "name": "ContractFundsTransferred",
      "type": "event"
    },
    {
      "anonymous": false,
      "inputs": [
        {
          "indexed": false,
          "internalType": "uint256",
          "name": "amount",
          "type": "uint256"
        }
      ],
      "name": "ContractFundsWithdrawn",
      "type": "event"
    },
    {
      "anonymous": false,
      "inputs": [
        {
          "indexed": true,
          "internalType": "uint256",
          "name": "campaignId",
          "type": "uint256"
        },
        {
          "indexed": true,
          "internalType": "address",
          "name": "backer",
          "type": "address"
        },
        {
          "indexed": false,
          "internalType": "uint256",
          "name": "amount",
          "type": "uint256"
        }
      ],
      "name": "Funded",
      "type": "event"
    },
    {
      "anonymous": false,
      "inputs": [
        {
          "indexed": true,
          "internalType": "uint256",
          "name": "campaignId",
          "type": "uint256"
        },
        {
          "indexed": true,
          "internalType": "address",
          "name": "backer",
          "type": "address"
        },
        {
          "indexed": false,
          "internalType": "uint256",
          "name": "amount",
          "type": "uint256"
        }
      ],
      "name": "Refunded",
      "type": "event"
    },
    {
      "anonymous": false,
      "inputs": [
        {
          "indexed": false,
          "internalType": "uint256",
          "name": "campaignId",
          "type": "uint256"
        },
        {
          "indexed": false,
          "internalType": "bool",
          "name": "byCreator",
          "type": "bool"
        }
      ],
      "name": "Stopped",
      "type": "event"
    },
    {
      "anonymous": false,
      "inputs": [
        {
          "indexed": false,
          "internalType": "uint256",
          "name": "campaignId",
          "type": "uint256"
        },
        {
          "indexed": true,
          "internalType": "address",
          "name": "creator",
          "type": "address"
        },
        {
          "indexed": false,
          "internalType": "uint256",
          "name": "amount",
          "type": "uint256"
        }
      ],
      "name": "Withdrawn",
      "type": "event"
    },
    {
      "inputs": [],
      "name": "MAX_CAMPAIGNS",
      "outputs": [
        {
          "internalType": "uint256",
          "name": "",
          "type": "uint256"
        }
      ],
      "stateMutability": "view",
      "type": "function"
    },
    {
      "inputs": [],
      "name": "MIN_DURATION",
      "outputs": [
        {
          "internalType": "uint256",
          "name": "",
          "type": "uint256"
        }
      ],
      "stateMutability": "view",
      "type": "function"
    },
    {
      "inputs": [],
      "name": "MIN_GOAL",
      "outputs": [
        {
          "internalType": "uint256",
          "name": "",
          "type": "uint256"
        }
      ],
      "stateMutability": "view",
      "type": "function"
    },
    {
      "inputs": [],
      "name": "WITHDRAW_PERCENT",
      "outputs": [
        {
          "internalType": "uint256",
          "name": "",
          "type": "uint256"
        }
      ],
      "stateMutability": "view",
      "type": "function"
    },
    {
      "inputs": [
        {
          "internalType": "uint256",
          "name": "_campaignId",
          "type": "uint256"
        }
      ],
      "name": "calculateWithdrawAmount",
      "outputs": [
        {
          "internalType": "uint256",
          "name": "",
          "type": "uint256"
        }
      ],
      "stateMutability": "view",
      "type": "function"
    },
    {
      "inputs": [],
      "name": "campaignCount",
      "outputs": [
        {
          "internalType": "uint256",
          "name": "",
          "type": "uint256"
        }
      ],
      "stateMutability": "view",
      "type": "function"
    },
    {
      "inputs": [
        {
          "internalType": "uint256",
          "name": "",
          "type": "uint256"
        }
      ],
      "name": "campaigns",
      "outputs": [
        {
          "internalType": "uint256",
          "name": "id",
          "type": "uint256"
        },
        {
          "internalType": "address",
          "name": "creator",
          "type": "address"
        },
        {
          "internalType": "string",
          "name": "metadataUrl",
          "type": "string"
        },
        {
          "internalType": "uint256",
          "name": "goal",
          "type": "uint256"
        },
        {
          "internalType": "uint256",
          "name": "deadline",
          "type": "uint256"
        },
        {
          "internalType": "uint256",
          "name": "fundsRaised",
          "type": "uint256"
        },
        {
          "internalType": "uint256",
          "name": "totalContributors",
          "type": "uint256"
        },
        {
          "internalType": "bool",
          "name": "isClosed",
          "type": "bool"
        }
      ],
      "stateMutability": "view",
      "type": "function"
    },
    {
      "inputs": [],
      "name": "closedCampaigns",
      "outputs": [
        {
          "internalType": "uint256",
          "name": "",
          "type": "uint256"
        }
      ],
      "stateMutability": "view",
      "type": "function"
    },
    {
      "inputs": [],
      "name": "contractBalance",
      "outputs": [
        {
          "internalType": "uint256",
          "name": "",
          "type": "uint256"
        }
      ],
      "stateMutability": "view",
      "type": "function"
    },
    {
      "inputs": [
        {
          "internalType": "string",
          "name": "_metadataUrl",
          "type": "string"
        },
        {
          "internalType": "uint256",
          "name": "_goal",
          "type": "uint256"
        },
        {
          "internalType": "uint256",
          "name": "_duration",
          "type": "uint256"
        }
      ],
      "name": "createCampaign",
      "outputs": [],
      "stateMutability": "nonpayable",
      "type": "function"
    },
    {
      "inputs": [
        {
          "internalType": "uint256",
          "name": "_campaignId",
          "type": "uint256"
        }
      ],
      "name": "fundCampaign",
      "outputs": [],
      "stateMutability": "payable",
      "type": "function"
    },
    {
      "inputs": [
        {
          "internalType": "uint256",
          "name": "_campaignId",
          "type": "uint256"
        },
        {
          "internalType": "address",
          "name": "_contributor",
          "type": "address"
        }
      ],
      "name": "getContribution",
      "outputs": [
        {
          "internalType": "uint256",
          "name": "",
          "type": "uint256"
        }
      ],
      "stateMutability": "view",
      "type": "function"
    },
    {
      "inputs": [
        {
          "internalType": "uint256",
          "name": "_campaignId",
          "type": "uint256"
        }
      ],
      "name": "isClosed",
      "outputs": [
        {
          "internalType": "bool",
          "name": "",
          "type": "bool"
        }
      ],
      "stateMutability": "view",
      "type": "function"
    },
    {
      "inputs": [
        {
          "internalType": "uint256",
          "name": "_campaignId",
          "type": "uint256"
        }
      ],
      "name": "isStopped",
      "outputs": [
        {
          "internalType": "bool",
          "name": "",
          "type": "bool"
        }
      ],
      "stateMutability": "view",
      "type": "function"
    },
    {
      "inputs": [],
      "name": "owner",
      "outputs": [
        {
          "internalType": "address",
          "name": "",
          "type": "address"
        }
      ],
      "stateMutability": "view",
      "type": "function"
    },
    {
      "inputs": [
        {
          "internalType": "uint256",
          "name": "_campaignId",
          "type": "uint256"
        }
      ],
      "name": "stop",
      "outputs": [],
      "stateMutability": "nonpayable",
      "type": "function"
    },
    {
      "inputs": [
        {
          "internalType": "uint256",
          "name": "",
          "type": "uint256"
        }
      ],
      "name": "stoppedCampaigns",
      "outputs": [
        {
          "internalType": "bool",
          "name": "",
          "type": "bool"
        }
      ],
      "stateMutability": "view",
      "type": "function"
    },
    {
      "inputs": [
        {
          "internalType": "uint256",
          "name": "_campaignId",
          "type": "uint256"
        }
      ],
      "name": "takeRefund",
      "outputs": [],
      "stateMutability": "nonpayable",
      "type": "function"
    },
    {
      "inputs": [
        {
          "internalType": "uint256",
          "name": "_amount",
          "type": "uint256"
        },
        {
          "internalType": "address",
          "name": "_receiver",
          "type": "address"
        }
      ],
      "name": "transfer",
      "outputs": [],
      "stateMutability": "nonpayable",
      "type": "function"
    },
    {
      "inputs": [
        {
          "internalType": "address",
          "name": "",
          "type": "address"
        }
      ],
      "name": "usersCampaigns",
      "outputs": [
        {
          "internalType": "uint256",
          "name": "",
          "type": "uint256"
        }
      ],
      "stateMutability": "view",
      "type": "function"
    },
    {
      "inputs": [
        {
          "internalType": "uint256",
          "name": "_amount",
          "type": "uint256"
        }
      ],
      "name": "withdraw",
      "outputs": [],
      "stateMutability": "nonpayable",
      "type": "function"
    },
    {
      "inputs": [
        {
          "internalType": "uint256",
          "name": "_campaignId",
          "type": "uint256"
        }
      ],
      "name": "withdrawFunds",
      "outputs": [],
      "stateMutability": "nonpayable",
      "type": "function"
    }
  ],
  "bytecode": "0x6080604052348015600f57600080fd5b50336000806101000a81548173ffffffffffffffffffffffffffffffffffffffff021916908373ffffffffffffffffffffffffffffffffffffffff160217905550612d7b8061005f6000396000f3fe6080604052600436106101355760003560e01c80638b7afe2e116100ab578063bb874be01161006f578063bb874be01461040c578063bc86bd7814610449578063d5c78a2814610474578063e081dbf9146104b1578063fa257d54146104ee578063fde6c9fb1461051957610135565b80638b7afe2e146103465780638da5cb5b1461037157806392bd38bc1461039c578063b6a6d177146103b8578063b7760c8f146103e357610135565b80632e1a7d4d116100fd5780632e1a7d4d146102385780633020580b146102615780636299f8cf1461028a5780636f276c99146102b35780637274e30d146102f0578063803517901461031b57610135565b8063041ae4c61461013a57806313efb76114610165578063141961bc1461018e578063155dd5ee146101d2578063174b0849146101fb575b600080fd5b34801561014657600080fd5b5061014f610556565b60405161015c91906119cd565b60405180910390f35b34801561017157600080fd5b5061018c60048036038101906101879190611a28565b610561565b005b34801561019a57600080fd5b506101b560048036038101906101b09190611a28565b6107b8565b6040516101c9989796959493929190611b41565b60405180910390f35b3480156101de57600080fd5b506101f960048036038101906101f49190611a28565b6108b5565b005b34801561020757600080fd5b50610222600480360381019061021d9190611a28565b610bb9565b60405161022f9190611bc6565b60405180910390f35b34801561024457600080fd5b5061025f600480360381019061025a9190611a28565b610bd9565b005b34801561026d57600080fd5b5061028860048036038101906102839190611d16565b610d66565b005b34801561029657600080fd5b506102b160048036038101906102ac9190611a28565b611027565b005b3480156102bf57600080fd5b506102da60048036038101906102d59190611a28565b611434565b6040516102e79190611bc6565b60405180910390f35b3480156102fc57600080fd5b5061030561145e565b60405161031291906119cd565b60405180910390f35b34801561032757600080fd5b50610330611464565b60405161033d91906119cd565b60405180910390f35b34801561035257600080fd5b5061035b61146a565b60405161036891906119cd565b60405180910390f35b34801561037d57600080fd5b50610386611470565b6040516103939190611d85565b60405180910390f35b6103b660048036038101906103b19190611a28565b611494565b005b3480156103c457600080fd5b506103cd6116b0565b6040516103da91906119cd565b60405180910390f35b3480156103ef57600080fd5b5061040a60048036038101906104059190611dcc565b6116b7565b005b34801561041857600080fd5b50610433600480360381019061042e9190611e0c565b6118ca565b60405161044091906119cd565b60405180910390f35b34801561045557600080fd5b5061045e6118e2565b60405161046b91906119cd565b60405180910390f35b34801561048057600080fd5b5061049b60048036038101906104969190611a28565b6118e7565b6040516104a89190611bc6565b60405180910390f35b3480156104bd57600080fd5b506104d860048036038101906104d39190611dcc565b611914565b6040516104e591906119cd565b60405180910390f35b3480156104fa57600080fd5b50610503611972565b60405161051091906119cd565b60405180910390f35b34801561052557600080fd5b50610540600480360381019061053b9190611a28565b611977565b60405161054d91906119cd565b60405180910390f35b662386f26fc1000081565b600061056d8233611914565b90506006600083815260200190815260200160002060009054906101000a900460ff166105cf576040517f08c379a00000000000000000000000000000000000000000000000000000000081526004016105c690611eab565b60405180910390fd5b60018111610612576040517f08c379a000000000000000000000000000000000000000000000000000000000815260040161060990611f17565b60405180910390fd5b60006004600084815260200190815260200160002090503373ffffffffffffffffffffffffffffffffffffffff168160010160009054906101000a900473ffffffffffffffffffffffffffffffffffffffff1673ffffffffffffffffffffffffffffffffffffffff16036106bb576040517f08c379a00000000000000000000000000000000000000000000000000000000081526004016106b290611fa9565b60405180910390fd5b818160050160008282546106cf9190611ff8565b925050819055503373ffffffffffffffffffffffffffffffffffffffff166108fc839081150290604051600060405180830381858888f1935050505015801561071c573d6000803e3d6000fd5b5060018160080160003373ffffffffffffffffffffffffffffffffffffffff1673ffffffffffffffffffffffffffffffffffffffff168152602001908152602001600020819055503373ffffffffffffffffffffffffffffffffffffffff16837f7ca5472b7ea78c2c0141c5a12ee6d170cf4ce8ed06be3d22c8252ddfc7a6a2c4846040516107ab91906119cd565b60405180910390a3505050565b60046020528060005260406000206000915090508060000154908060010160009054906101000a900473ffffffffffffffffffffffffffffffffffffffff16908060020180546108079061205b565b80601f01602080910402602001604051908101604052809291908181526020018280546108339061205b565b80156108805780601f1061085557610100808354040283529160200191610880565b820191906000526020600020905b81548152906001019060200180831161086357829003601f168201915b5050505050908060030154908060040154908060050154908060060154908060070160009054906101000a900460ff16905088565b60006004600083815260200190815260200160002090508060010160009054906101000a900473ffffffffffffffffffffffffffffffffffffffff1673ffffffffffffffffffffffffffffffffffffffff163373ffffffffffffffffffffffffffffffffffffffff161461095e576040517f08c379a0000000000000000000000000000000000000000000000000000000008152600401610955906120d8565b60405180910390fd5b8060070160009054906101000a900460ff16156109b0576040517f08c379a00000000000000000000000000000000000000000000000000000000081526004016109a79061216a565b60405180910390fd5b806003015481600501541015806109ca5750806004015442115b610a09576040517f08c379a0000000000000000000000000000000000000000000000000000000008152600401610a00906121fc565b60405180910390fd5b60006064605f8360050154610a1e919061221c565b610a28919061228d565b90506000818360050154610a3c9190611ff8565b90503373ffffffffffffffffffffffffffffffffffffffff166108fc839081150290604051600060405180830381858888f19350505050158015610a84573d6000803e3d6000fd5b508060036000828254610a9791906122be565b9250508190555060018360070160006101000a81548160ff021916908315150217905550600560003373ffffffffffffffffffffffffffffffffffffffff1673ffffffffffffffffffffffffffffffffffffffff1681526020019081526020016000206000815480929190610b0b906122f2565b919050555060026000815480929190610b239061231b565b91905055503373ffffffffffffffffffffffffffffffffffffffff167fcf7d23a3cbe4e8b36ff82fd1b05b1b17373dc7804b4ebbd6e2356716ef2023728584604051610b70929190612363565b60405180910390a260007f1f34d69d487e6b240ad47312dd423beee4fee7b2fca7b517429f8c5247e5c9938583604051610bab929190612363565b60405180910390a250505050565b60066020528060005260406000206000915054906101000a900460ff1681565b60008054906101000a900473ffffffffffffffffffffffffffffffffffffffff1673ffffffffffffffffffffffffffffffffffffffff163373ffffffffffffffffffffffffffffffffffffffff1614610c67576040517f08c379a0000000000000000000000000000000000000000000000000000000008152600401610c5e906123d8565b60405180910390fd5b600354811115610cac576040517f08c379a0000000000000000000000000000000000000000000000000000000008152600401610ca390612444565b60405180910390fd5b60008054906101000a900473ffffffffffffffffffffffffffffffffffffffff1673ffffffffffffffffffffffffffffffffffffffff166108fc829081150290604051600060405180830381858888f19350505050158015610d12573d6000803e3d6000fd5b508060036000828254610d259190611ff8565b925050819055507f0af52a7c1fa7dfbcd67f2010bccb35424ce578855b52618e6aefc3bf338e828b81604051610d5b91906119cd565b60405180910390a150565b662386f26fc10000821015610db0576040517f08c379a0000000000000000000000000000000000000000000000000000000008152600401610da7906124d6565b60405180910390fd5b62015180811015610df6576040517f08c379a0000000000000000000000000000000000000000000000000000000008152600401610ded90612568565b60405180910390fd5b60008054906101000a900473ffffffffffffffffffffffffffffffffffffffff1673ffffffffffffffffffffffffffffffffffffffff163373ffffffffffffffffffffffffffffffffffffffff161480610e8f57506003600560003373ffffffffffffffffffffffffffffffffffffffff1673ffffffffffffffffffffffffffffffffffffffff16815260200190815260200160002054105b610ece576040517f08c379a0000000000000000000000000000000000000000000000000000000008152600401610ec5906125fa565b60405180910390fd5b600060046000600154815260200190815260200160002090506001548160000181905550338160010160006101000a81548173ffffffffffffffffffffffffffffffffffffffff021916908373ffffffffffffffffffffffffffffffffffffffff16021790555083816002019081610f4691906127c6565b508281600301819055508142610f5c91906122be565b8160040181905550600560003373ffffffffffffffffffffffffffffffffffffffff1673ffffffffffffffffffffffffffffffffffffffff1681526020019081526020016000206000815480929190610fb49061231b565b919050555060016000815480929190610fcc9061231b565b91905055503373ffffffffffffffffffffffffffffffffffffffff167f633109eec20320eded000fc1e2634211aa7e92ba3f5b15faf6dcdafca05094e460015460405161101991906119cd565b60405180910390a250505050565b60006004600083815260200190815260200160002090503373ffffffffffffffffffffffffffffffffffffffff1660008054906101000a900473ffffffffffffffffffffffffffffffffffffffff1673ffffffffffffffffffffffffffffffffffffffff1614806110e757508060010160009054906101000a900473ffffffffffffffffffffffffffffffffffffffff1673ffffffffffffffffffffffffffffffffffffffff163373ffffffffffffffffffffffffffffffffffffffff16145b611126576040517f08c379a000000000000000000000000000000000000000000000000000000000815260040161111d9061290a565b60405180910390fd5b6006600083815260200190815260200160002060009054906101000a900460ff1615611187576040517f08c379a000000000000000000000000000000000000000000000000000000000815260040161117e90612976565b60405180910390fd5b8060070160009054906101000a900460ff16156111d9576040517f08c379a00000000000000000000000000000000000000000000000000000000081526004016111d0906129e2565b60405180910390fd5b8060040154421061121f576040517f08c379a000000000000000000000000000000000000000000000000000000000815260040161121690612a4e565b60405180910390fd5b60016006600084815260200190815260200160002060006101000a81548160ff02191690831515021790555060018160070160006101000a81548160ff021916908315150217905550600560008260010160009054906101000a900473ffffffffffffffffffffffffffffffffffffffff1673ffffffffffffffffffffffffffffffffffffffff1673ffffffffffffffffffffffffffffffffffffffff16815260200190815260200160002060008154809291906112dc906122f2565b9190505550600260008154809291906112f49061231b565b91905055506000611329838360010160009054906101000a900473ffffffffffffffffffffffffffffffffffffffff16611914565b905060008111156113a457806003600082825461134691906122be565b92505081905550808260050160008282546113619190611ff8565b9250508190555060017f1f34d69d487e6b240ad47312dd423beee4fee7b2fca7b517429f8c5247e5c993848360405161139b929190612363565b60405180910390a25b7fcdd56f57c4ec518d061d6876d0e03da1d1ccab1a7266d4b389e5b1cafc7a082e838360010160009054906101000a900473ffffffffffffffffffffffffffffffffffffffff1673ffffffffffffffffffffffffffffffffffffffff163373ffffffffffffffffffffffffffffffffffffffff1614604051611427929190612a6e565b60405180910390a1505050565b60006006600083815260200190815260200160002060009054906101000a900460ff169050919050565b60015481565b60025481565b60035481565b60008054906101000a900473ffffffffffffffffffffffffffffffffffffffff1681565b6000600460008381526020019081526020016000209050806004015442106114f1576040517f08c379a00000000000000000000000000000000000000000000000000000000081526004016114e890612ae3565b60405180910390fd5b8060070160009054906101000a900460ff1615611543576040517f08c379a000000000000000000000000000000000000000000000000000000000815260040161153a90612b4f565b60405180910390fd5b60003411611586576040517f08c379a000000000000000000000000000000000000000000000000000000000815260040161157d90612bbb565b60405180910390fd5b60008160080160003373ffffffffffffffffffffffffffffffffffffffff1673ffffffffffffffffffffffffffffffffffffffff16815260200190815260200160002054036115ea578060060160008154809291906115e49061231b565b91905055505b348160050160008282546115fe91906122be565b92505081905550348160080160003373ffffffffffffffffffffffffffffffffffffffff1673ffffffffffffffffffffffffffffffffffffffff168152602001908152602001600020600082825461165691906122be565b925050819055503373ffffffffffffffffffffffffffffffffffffffff16827f38c48552690c96ec2872092ac1db6c19fb59f5a8c5b49bbf41ed4886d0ca6926346040516116a491906119cd565b60405180910390a35050565b6201518081565b60008054906101000a900473ffffffffffffffffffffffffffffffffffffffff1673ffffffffffffffffffffffffffffffffffffffff163373ffffffffffffffffffffffffffffffffffffffff1614611745576040517f08c379a000000000000000000000000000000000000000000000000000000000815260040161173c90612c27565b60405180910390fd5b60008054906101000a900473ffffffffffffffffffffffffffffffffffffffff1673ffffffffffffffffffffffffffffffffffffffff168173ffffffffffffffffffffffffffffffffffffffff16036117d3576040517f08c379a00000000000000000000000000000000000000000000000000000000081526004016117ca90612cb9565b60405180910390fd5b600354821115611818576040517f08c379a000000000000000000000000000000000000000000000000000000000815260040161180f90612d25565b60405180910390fd5b8073ffffffffffffffffffffffffffffffffffffffff166108fc839081150290604051600060405180830381858888f1935050505015801561185e573d6000803e3d6000fd5b5081600360008282546118719190611ff8565b925050819055508073ffffffffffffffffffffffffffffffffffffffff167fb1df4867a2dd271d32143c9f208fc2d9295e6a5458536b59670e56d337279a3f836040516118be91906119cd565b60405180910390a25050565b60056020528060005260406000206000915090505481565b605f81565b60006004600083815260200190815260200160002060070160009054906101000a900460ff169050919050565b60006004600084815260200190815260200160002060080160008373ffffffffffffffffffffffffffffffffffffffff1673ffffffffffffffffffffffffffffffffffffffff16815260200190815260200160002054905092915050565b600381565b6000806004600084815260200190815260200160002090506064605f82600501546119a2919061221c565b6119ac919061228d565b915050919050565b6000819050919050565b6119c7816119b4565b82525050565b60006020820190506119e260008301846119be565b92915050565b6000604051905090565b600080fd5b600080fd5b611a05816119b4565b8114611a1057600080fd5b50565b600081359050611a22816119fc565b92915050565b600060208284031215611a3e57611a3d6119f2565b5b6000611a4c84828501611a13565b91505092915050565b600073ffffffffffffffffffffffffffffffffffffffff82169050919050565b6000611a8082611a55565b9050919050565b611a9081611a75565b82525050565b600081519050919050565b600082825260208201905092915050565b60005b83811015611ad0578082015181840152602081019050611ab5565b60008484015250505050565b6000601f19601f8301169050919050565b6000611af882611a96565b611b028185611aa1565b9350611b12818560208601611ab2565b611b1b81611adc565b840191505092915050565b60008115159050919050565b611b3b81611b26565b82525050565b600061010082019050611b57600083018b6119be565b611b64602083018a611a87565b8181036040830152611b768189611aed565b9050611b8560608301886119be565b611b9260808301876119be565b611b9f60a08301866119be565b611bac60c08301856119be565b611bb960e0830184611b32565b9998505050505050505050565b6000602082019050611bdb6000830184611b32565b92915050565b600080fd5b600080fd5b7f4e487b7100000000000000000000000000000000000000000000000000000000600052604160045260246000fd5b611c2382611adc565b810181811067ffffffffffffffff82111715611c4257611c41611beb565b5b80604052505050565b6000611c556119e8565b9050611c618282611c1a565b919050565b600067ffffffffffffffff821115611c8157611c80611beb565b5b611c8a82611adc565b9050602081019050919050565b82818337600083830152505050565b6000611cb9611cb484611c66565b611c4b565b905082815260208101848484011115611cd557611cd4611be6565b5b611ce0848285611c97565b509392505050565b600082601f830112611cfd57611cfc611be1565b5b8135611d0d848260208601611ca6565b91505092915050565b600080600060608486031215611d2f57611d2e6119f2565b5b600084013567ffffffffffffffff811115611d4d57611d4c6119f7565b5b611d5986828701611ce8565b9350506020611d6a86828701611a13565b9250506040611d7b86828701611a13565b9150509250925092565b6000602082019050611d9a6000830184611a87565b92915050565b611da981611a75565b8114611db457600080fd5b50565b600081359050611dc681611da0565b92915050565b60008060408385031215611de357611de26119f2565b5b6000611df185828601611a13565b9250506020611e0285828601611db7565b9150509250929050565b600060208284031215611e2257611e216119f2565b5b6000611e3084828501611db7565b91505092915050565b7f526566756e64206973206f6e6c7920617661696c61626c6520666f722073746f60008201527f707065642063616d706169676e73000000000000000000000000000000000000602082015250565b6000611e95602e83611aa1565b9150611ea082611e39565b604082019050919050565b60006020820190508181036000830152611ec481611e88565b9050919050565b7f4e6f2066756e647320617661696c61626c6520666f7220726566756e64000000600082015250565b6000611f01601d83611aa1565b9150611f0c82611ecb565b602082019050919050565b60006020820190508181036000830152611f3081611ef4565b9050919050565b7f43616d706169676e2063726561746f722063616e27742074616b65207265667560008201527f6e64000000000000000000000000000000000000000000000000000000000000602082015250565b6000611f93602283611aa1565b9150611f9e82611f37565b604082019050919050565b60006020820190508181036000830152611fc281611f86565b9050919050565b7f4e487b7100000000000000000000000000000000000000000000000000000000600052601160045260246000fd5b6000612003826119b4565b915061200e836119b4565b925082820390508181111561202657612025611fc9565b5b92915050565b7f4e487b7100000000000000000000000000000000000000000000000000000000600052602260045260246000fd5b6000600282049050600182168061207357607f821691505b6020821081036120865761208561202c565b5b50919050565b7f4f6e6c792063726561746f722063616e20776974686472617700000000000000600082015250565b60006120c2601983611aa1565b91506120cd8261208c565b602082019050919050565b600060208201905081810360008301526120f1816120b5565b9050919050565b7f43616d706169676e20697320636c6f7365642e2046756e647320616c7265616460008201527f792077697468647261776e000000000000000000000000000000000000000000602082015250565b6000612154602b83611aa1565b915061215f826120f8565b604082019050919050565b6000602082019050818103600083015261218381612147565b9050919050565b7f5761697420666f722063616d706169676e20746f20657870697265206f72207260008201527f656163682066756e64696e6720676f616c000000000000000000000000000000602082015250565b60006121e6603183611aa1565b91506121f18261218a565b604082019050919050565b60006020820190508181036000830152612215816121d9565b9050919050565b6000612227826119b4565b9150612232836119b4565b9250828202612240816119b4565b9150828204841483151761225757612256611fc9565b5b5092915050565b7f4e487b7100000000000000000000000000000000000000000000000000000000600052601260045260246000fd5b6000612298826119b4565b91506122a3836119b4565b9250826122b3576122b261225e565b5b828204905092915050565b60006122c9826119b4565b91506122d4836119b4565b92508282019050808211156122ec576122eb611fc9565b5b92915050565b60006122fd826119b4565b9150600082036123105761230f611fc9565b5b600182039050919050565b6000612326826119b4565b91507fffffffffffffffffffffffffffffffffffffffffffffffffffffffffffffffff820361235857612357611fc9565b5b600182019050919050565b600060408201905061237860008301856119be565b61238560208301846119be565b9392505050565b7f4f6e6c7920636f6e7472616374206f776e65722063616e207769746864726177600082015250565b60006123c2602083611aa1565b91506123cd8261238c565b602082019050919050565b600060208201905081810360008301526123f1816123b5565b9050919050565b7f4e6f20617661696c61626c6520776974686472617761626c652066756e647300600082015250565b600061242e601f83611aa1565b9150612439826123f8565b602082019050919050565b6000602082019050818103600083015261245d81612421565b9050919050565b7f476f616c206d7573742062652067726561746572207468616e204d494e5f474f60008201527f414c000000000000000000000000000000000000000000000000000000000000602082015250565b60006124c0602283611aa1565b91506124cb82612464565b604082019050919050565b600060208201905081810360008301526124ef816124b3565b9050919050565b7f4475726174696f6e206d7573742062652067726561746572207468616e204d4960008201527f4e5f4455524154494f4e00000000000000000000000000000000000000000000602082015250565b6000612552602a83611aa1565b915061255d826124f6565b604082019050919050565b6000602082019050818103600083015261258181612545565b9050919050565b7f4d61782063616d706169676e7320726561636865642e20436c6f736520736f6d60008201527f6520746f20637265617465206e6577206f6e6573000000000000000000000000602082015250565b60006125e4603483611aa1565b91506125ef82612588565b604082019050919050565b60006020820190508181036000830152612613816125d7565b9050919050565b60008190508160005260206000209050919050565b60006020601f8301049050919050565b600082821b905092915050565b60006008830261267c7fffffffffffffffffffffffffffffffffffffffffffffffffffffffffffffffff8261263f565b612686868361263f565b95508019841693508086168417925050509392505050565b6000819050919050565b60006126c36126be6126b9846119b4565b61269e565b6119b4565b9050919050565b6000819050919050565b6126dd836126a8565b6126f16126e9826126ca565b84845461264c565b825550505050565b600090565b6127066126f9565b6127118184846126d4565b505050565b5b818110156127355761272a6000826126fe565b600181019050612717565b5050565b601f82111561277a5761274b8161261a565b6127548461262f565b81016020851015612763578190505b61277761276f8561262f565b830182612716565b50505b505050565b600082821c905092915050565b600061279d6000198460080261277f565b1980831691505092915050565b60006127b6838361278c565b9150826002028217905092915050565b6127cf82611a96565b67ffffffffffffffff8111156127e8576127e7611beb565b5b6127f2825461205b565b6127fd828285612739565b600060209050601f831160018114612830576000841561281e578287015190505b61282885826127aa565b865550612890565b601f19841661283e8661261a565b60005b8281101561286657848901518255600182019150602085019450602081019050612841565b86831015612883578489015161287f601f89168261278c565b8355505b6001600288020188555050505b505050505050565b7f4f6e6c792063726561746f72206f722061646d696e2063616e2073746f70206160008201527f2063616d706169676e0000000000000000000000000000000000000000000000602082015250565b60006128f4602983611aa1565b91506128ff82612898565b604082019050919050565b60006020820190508181036000830152612923816128e7565b9050919050565b7f43616d706169676e20697320616c72656164792073746f707065640000000000600082015250565b6000612960601b83611aa1565b915061296b8261292a565b602082019050919050565b6000602082019050818103600083015261298f81612953565b9050919050565b7f43616d706169676e20697320616c726561647920636c6f736564000000000000600082015250565b60006129cc601a83611aa1565b91506129d782612996565b602082019050919050565b600060208201905081810360008301526129fb816129bf565b9050919050565b7f43616d706169676e206861732065787069726564000000000000000000000000600082015250565b6000612a38601483611aa1565b9150612a4382612a02565b602082019050919050565b60006020820190508181036000830152612a6781612a2b565b9050919050565b6000604082019050612a8360008301856119be565b612a906020830184611b32565b9392505050565b7f43616d706169676e206578706972656400000000000000000000000000000000600082015250565b6000612acd601083611aa1565b9150612ad882612a97565b602082019050919050565b60006020820190508181036000830152612afc81612ac0565b9050919050565b7f43616d706169676e20697320636c6f7365640000000000000000000000000000600082015250565b6000612b39601283611aa1565b9150612b4482612b03565b602082019050919050565b60006020820190508181036000830152612b6881612b2c565b9050919050565b7f4d7573742073656e642045544800000000000000000000000000000000000000600082015250565b6000612ba5600d83611aa1565b9150612bb082612b6f565b602082019050919050565b60006020820190508181036000830152612bd481612b98565b9050919050565b7f4f6e6c7920636f6e7472616374206f776e65722063616e207472616e73666572600082015250565b6000612c11602083611aa1565b9150612c1c82612bdb565b602082019050919050565b60006020820190508181036000830152612c4081612c04565b9050919050565b7f4f776e65722073686f756c64207573652077697468647261772066756e63746960008201527f6f6e000000000000000000000000000000000000000000000000000000000000602082015250565b6000612ca3602283611aa1565b9150612cae82612c47565b604082019050919050565b60006020820190508181036000830152612cd281612c96565b9050919050565b7f4e6f20617661696c61626c65207472616e736665727261626c652066756e6473600082015250565b6000612d0f602083611aa1565b9150612d1a82612cd9565b602082019050919050565b60006020820190508181036000830152612d3e81612d02565b905091905056fea26469706673582212209288af142ede13b2be7d6227a22e5aa8b52ab2448f6de8a4f62723ee0098135664736f6c634300081c0033",
  "linkReferences": {},
  "deployedLinkReferences": {}
}